:100000000C9434000C9449000C9449000C94490061
:100010000C9449000C9449000C9449000C9449003C
:100020000C9449000C9449000C9449000C9449002C
:100030000C9449000C9449000C9449000C9449001C
:100040000C9449000C9449000C9449000C9449000C
:100050000C9449000C9449000C9449000C944900FC
:100060000C9449000C94490011241FBECFEFD8E036
:10007000DEBFCDBF11E0A0E0B1E0E4ECF5E102C0ED
:1000800005900D92AE31B107D9F70E9400040C948F
:10009000E00A0C9400000F931F93DF93CF93CDB72A
:1000A000DEB76A970FB6F894DEBF0FBECDBF898F5B
:1000B0006A8F88E290E02FEFFC0120838AE290E0D3
:1000C0002FEFFC01208385E290E0298DFC01208345
:1000D0008BE290E02A8DFC01208388E290E02DEFF6
:1000E000FC01208380E090E0A0E8BFE389839A834D
:1000F000AB83BC8369817A818B819C812BEA3AEA4C
:100100004AEA50E40E948F06DC01CB018D839E8376
:10011000AF83B88711E06D817E818F81988520E063
:1001200030E040E85FE30E94970888230CF010E07D
:10013000112319F081E08987A3C011E06D817E81D0
:100140008F81988520E030E04FE753E40E94370824
:1001500018160CF010E0112309F489C069817A8126
:100160008B819C8120E030E04AE754E40E948907BB
:10017000DC01CB018A879B87AC87BD876A857B853D
:100180008C859D8520E030E04AE755E40E948F068B
:10019000DC01CB018E879F87A88BB98B11E06E8520
:1001A0007F858889998920E030E040E85FE30E94FC
:1001B000970888230CF010E0112329F081E090E0EB
:1001C0009B8B8A8B46C011E06E857F8588899989D3
:1001D00020E03FEF4FE757E40E94370818160CF075
:1001E00010E0112361F16A857B858C859D8520E077
:1001F00030E040E251E40E948F06DC01CB01BC01FB
:10020000CD010E94BB04DC01CB019B8B8A8B12C009
:1002100080E991E09D8B8C8B8C899D898C01C80134
:100220000197F1F78C011D8B0C8B8A899B890197B3
:100230009B8B8A8B8A899B89009751F728C06E8592
:100240007F85888999890E94BB04DC01CB019B8B47
:100250008A8B8A899B899F8B8E8B8E899F898C0143
:10026000F8013197F1F78F011F8B0E8B10C06D8154
:100270007E818F8198850E94BB04DC01CB01898738
:100280008985888F888D182F1A95F1F7188F88E245
:1002900090E02FEFFC0120836A960FB6F894DEBF42
:1002A0000FBECDBFCF91DF911F910F9108950F9396
:1002B0001F93DF93CF93CDB7DEB769970FB6F8944E
:1002C000DEBF0FBECDBF898F88E290E02FEFFC012B
:1002D00020838AE290E0FC0110828BE290E02FEF15
:1002E000FC01208385E290E0298DFC01208388E2D7
:1002F00090E02EEFFC01208380E090E0A0E8BFE3D7
:1003000089839A83AB83BC8369817A818B819C8149
:100310002BEA3AEA4AEA50E40E948F06DC01CB015C
:100320008D839E83AF83B88711E06D817E818F813D
:10033000988520E030E040E85FE30E94970888233A
:100340000CF010E0112319F081E08987A3C011E0BF
:100350006D817E818F81988520E030E04FE753E406
:100360000E94370818160CF010E0112309F489C018
:1003700069817A818B819C8120E030E04AE754E4F6
:100380000E948907DC01CB018A879B87AC87BD87E8
:100390006A857B858C859D8520E030E04AE755E4C1
:1003A0000E948F06DC01CB018E879F87A88BB98BBB
:1003B00011E06E857F858889998920E030E040E8EA
:1003C0005FE30E94970888230CF010E0112329F0C6
:1003D00081E090E09B8B8A8B46C011E06E857F8523
:1003E0008889998920E03FEF4FE757E40E9437085A
:1003F00018160CF010E0112361F16A857B858C855D
:100400009D8520E030E040E251E40E948F06DC014F
:10041000CB01BC01CD010E94BB04DC01CB019B8B55
:100420008A8B12C080E991E09D8B8C8B8C899D8991
:100430008C01C8010197F1F78C011D8B0C8B8A8907
:100440009B8901979B8B8A8B8A899B89009751F79F
:1004500028C06E857F85888999890E94BB04DC014C
:10046000CB019B8B8A8B8A899B899F8B8E8B8E89F4
:100470009F898C01F8013197F1F78F011F8B0E8B4B
:1004800010C06D817E818F8198850E94BB04DC0144
:10049000CB0189878985888F888D182F1A95F1F768
:1004A000188F88E290E02FEFFC01208389E290E032
:1004B000FC01808169960FB6F894DEBF0FBECDBFF8
:1004C000CF91DF911F910F9108950F931F93DF93A9
:1004D000CF93CDB7DEB761970FB6F894DEBF0FBEEE
:1004E000CDBF888B698B198280E068890E944B00A0
:1004F0008989898389818260898381E069810E94F9
:100500004B0080E090E0A0E8BFE38A839B83AC834C
:10051000BD836A817B818C819D8120E030E04AE748
:1005200055E40E948F06DC01CB018E839F83A88750
:10053000B98711E06E817F818885998520E030E060
:1005400040E85FE30E94970888230CF010E0112335
:1005500029F081E090E09B878A8746C011E06E8198
:100560007F818885998520E03FEF4FE757E40E941F
:10057000370818160CF010E0112361F16A817B81B5
:100580008C819D8120E030E040E251E40E948F06A2
:10059000DC01CB01BC01CD010E94BB04DC01CB011D
:1005A0009B878A8712C080E991E09D878C878C8524
:1005B0009D858C01C8010197F1F78C011D870C877F
:1005C0008A859B8501979B878A878A859B8500976B
:1005D00051F717C06E817F81888599850E94BB0481
:1005E000DC01CB019B878A878A859B859F878E87C5
:1005F0008E859F858C01C8010197F1F78C011F87BB
:100600000E8789818D7F898381E069810E944B00FB
:1006100061960FB6F894DEBF0FBECDBFCF91DF91CC
:100620001F910F910895DF93CF93CDB7DEB788E385
:1006300060E00E94650281E060E00E9465028EE059
:1006400060E00E946502CF91DF910895DF93CF9320
:100650000F92CDB7DEB78983898161E00E94650280
:100660000F90CF91DF910895DF93CF9300D0CDB756
:10067000DEB79A8389830BC089819A81FC018081CE
:100680000E94260389819A8101969A8389838981B0
:100690009A81FC018081882379F70F900F90CF9188
:1006A000DF910895DF93CF93CDB7DEB72B970FB6C9
:1006B000F894DEBF0FBECDBF8FEE8C838FED8D83A0
:1006C0008FEB8E838FE78F838EE088878DE089871D
:1006D0008BE08A8787E08B87198249C08981882FC0
:1006E00090E09E012C5F3F4F820F931FFC01908191
:1006F00082E0692F0E944B0082E00E9457018B83A9
:100700008B818F708B831A822CC08A81882F90E016
:100710009E01285F3F4F820F931FFC0190818B81C8
:100720009817E1F48981882F90E09C012450304093
:100730008A81882F90E0220F331F220F331F820FF0
:10074000931F80509F4FFC0180812B960FB6F89429
:10075000DEBF0FBECDBFCF91DF9108958A818F5F3D
:100760008A838A81843088F289818F5F8983898135
:10077000843008F4B3CFB0CFDF93CF9300D000D054
:1007800000D0CDB7DEB79A8389837C836B835E8389
:100790004D8326960FB6F894DEBF0FBECDBFCF9126
:1007A000DF910895DF93CF9300D000D00F92CDB7A3
:1007B000DEB79A8389837C836B834D830F900F9080
:1007C0000F900F900F90CF91DF910895DF93CF930B
:1007D000CDB7DEB7CF91DF910895DF93CF9300D0EF
:1007E000CDB7DEB79A8389830F900F90CF91DF91B9
:1007F0000895DF93CF93CDB7DEB7CF91DF91089502
:100800000F931F93DF93CF93CDB7DEB72F970FB61C
:10081000F894DEBF0FBECDBF84E290E02FEFFC0165
:10082000208387E290E02FEFFC01208383E061E8E2
:100830000E944B000E94130380E191E00E94340368
:1008400080E090E0AAE7B4E48A839B83AC83BD8315
:100850006A817B818C819D8120E030E04AE755E40C
:100860000E948F06DC01CB018E839F83A887B98706
:1008700011E06E817F818885998520E030E040E835
:100880005FE30E94970888230CF010E0112329F001
:1008900081E090E09B878A8746C011E06E817F816E
:1008A0008885998520E03FEF4FE757E40E9437089D
:1008B00018160CF010E0112361F16A817B818C81A4
:1008C0009D8120E030E040E251E40E948F06DC018F
:1008D000CB01BC01CD010E94BB04DC01CB019B8795
:1008E0008A8712C080E991E09D878C878C859D85E1
:1008F0008C01C8010197F1F78C011D870C878A854F
:100900009B8501979B878A878A859B85009751F7EE
:1009100017C06E817F81888599850E94BB04DC01A8
:10092000CB019B878A878A859B859F878E878E854B
:100930009F858C01F8013197F1F78F011F870E8792
:1009400081E060E00E94650280E860E00E9465024C
:100950000E945203898389810E94260380E090E0EF
:100960002F960FB6F894DEBF0FBECDBFCF91DF91AB
:100970001F910F910895EF92FF920F931F937B01A8
:100980008C0120E030E040E05FE40E94670887FDD2
:1009900011C0C801B70120E030E040E05FE40E94F0
:1009A0005E060E94C7089B01AC01205030404040C9
:1009B000504806C0C801B7010E94C7089B01AC019E
:1009C000B901CA011F910F91FF90EF900895A0E027
:1009D000B0E0EDEEF4E00C94AD0AFC01EA01808198
:1009E000823008F438C1DB019C91923008F430C1A8
:1009F000843059F4943009F02EC1918111968C9174
:100A00001197981709F021C126C1943009F420C12B
:100A10009230B1F4823009F01EC1CA01AF0128E062
:100A2000DA010D90AD01DC010D92CD012150C1F72D
:100A3000DB0111968C9111979181892389830AC1D9
:100A4000823009F405C1C280D380DB0112966D901B
:100A50007C90139724813581468157811496ED90BF
:100A6000FD900D911C911797C601861997095C019D
:100A700097FF04C0AA24BB24A81AB90AB0E2AB1697
:100A8000B1040CF061C0181619066CF53701480165
:100A90000A2C04C096948794779467940A94D2F7AA
:100AA00081E090E0A0E0B0E00A2C04C0880F991F1C
:100AB000AA1FBB1F0A94D2F70197A109B1098E2181
:100AC0009F21A023B123EE24FF248701E394009704
:100AD000A105B10519F4EE24FF248701E628F728C3
:100AE000082919293CC00097D1F1CA0CDB1C390137
:100AF0004A010A2C04C096948794779467940A94C8
:100B0000D2F781E090E0A0E0B0E00A2C04C0880FAA
:100B1000991FAA1FBB1F0A94D2F70197A109B10917
:100B200082239323A423B52321E030E040E050E06A
:100B30000097A105B10519F420E030E0A9012629AC
:100B40003729482959290BC06C147D0424F4EE245C
:100B5000FF24870104C0630120E030E0A901818106
:100B6000FB019181891709F445C0882349F0D80118
:100B7000C701821B930BA40BB50B9C01AD0104C0F4
:100B80002E193F09400B510B57FD04C01982DB821F
:100B9000CA820BC081E08983DB82CA82509540956E
:100BA000309521953F4F4F4F5F4F2C833D834E83B0
:100BB0005F830DC0880F991FAA1FBB1F8C839D8365
:100BC000AE83BF838A819B8101979B838A838C81BB
:100BD0009D81AE81BF819C01AD01215030404040DC
:100BE00050402F3FEFEF3E07EFEF4E07EFE35E077A
:100BF00008F30BC08983DB82CA822E0D3F1D401F84
:100C0000511F2C833D834E835F8383E088832C8137
:100C10003D814E815F8157FF1DC0DA01C90181709E
:100C20009070A070B0705695479537952795822B98
:100C3000932BA42BB52B8C839D83AE83BF838A819A
:100C40009B8101969B838A8305C0E6E1F1E003C0A6
:100C5000FB0101C0FE01CF01CDB7DEB7EEE00C9481
:100C6000C90AA0E2B0E0E7E3F6E00C94B50A6983B4
:100C70007A838B839C832D833E834F83588789E0BF
:100C8000E82EF12CEC0EFD1ECE010196B7010E945C
:100C9000E7098E010F5E1F4FCE010596B8010E9435
:100CA000E709C701B801AE01475E5F4F0E94E70444
:100CB0000E941909A096E6E00C94D10AA0E2B0E0E7
:100CC000E4E6F6E00C94B50A69837A838B839C830F
:100CD0002D833E834F8358878E01075F1F4FCE01C0
:100CE0000196B8010E94E70991E1E92EF12CEC0E82
:100CF000FD1ECE010596B7010E94E7098A8991E0A1
:100D000089278A8BC801B701AE01475E5F4F0E94F9
:100D1000E7040E941909A096E6E00C94D10AA0E22B
:100D2000B0E0E5E9F6E00C94A90A69837A838B8345
:100D30009C832D833E834F835887CE010196BE014D
:100D4000675F7F4F0E94E709CE010596BE016F5E87
:100D50007F4F0E94E7099985923078F08989823027
:100D6000C0F0943019F4823041F4CBC0843019F4CF
:100D7000923079F4C6C0923051F481E02A859A8984
:100D8000291709F480E08A87CE010996BCC0823019
:100D900051F481E02A859A89291709F480E08A8B29
:100DA000CE014196B0C06D847E848F849888ED8892
:100DB000FE880F89188DE0E2F0E080E090E0DC0131
:100DC000AA24BB24650120E030E0A901B3016170D1
:100DD000707061157105D1F02E0D3F1D401F511F20
:100DE00015012601280E391E4A1E5B1E81E090E087
:100DF000A0E0B0E02E153F054007510718F080E055
:100E000090E0DC01820D931DA41DB51DAA0CBB1C36
:100E1000CC1CDD1C17FF09C061E0262E312C412CB3
:100E2000512CA228B328C428D528319749F0EE0CBC
:100E3000FF1C001F111F9694879477946794C6CF68
:100E40006B897C89EB85FC856E0F7F1F6E5F7F4F02
:100E50007C8F6B8F61E0EA857A89E71709F460E09F
:100E60006A8F6B8D7C8D10C0FC01E170F070309743
:100E700029F056954795379527955068B695A795CB
:100E8000979587956F5F7F4FB7FDEECF0CC0880FAA
:100E9000991FAA1FBB1F57FD8160220F331F441FDC
:100EA000551F615070408030E0E09E07E0E0AE07E3
:100EB000E0E4BE0760F36B8F7C8F6FE7E62EF12CCA
:100EC000012D112DE822F9220A231B2360E4E616E6
:100ED000F1040105110561F487FD0AC021153105F2
:100EE0004105510529F0805C9F4FAF4FBF4F80787F
:100EF0008D8F9E8FAF8FB8A383E0898FCE014996E7
:100F000002C086E191E00E941909A096E2E10C94EA
:100F1000C50AA8E1B0E0EFE8F7E00C94B10A6983F4
:100F20007A838B839C832D833E834F8358878E01E6
:100F3000075F1F4FCE010196B8010E94E70981E1CA
:100F4000E82EF12CEC0EFD1ECE010596B7010E9495
:100F5000E7099985923008F483C08989823008F4C2
:100F60007BC02A853A8923272A87943011F0923052
:100F700021F4981709F06CC071C0843039F41D86D3
:100F80001E861F86188A1C861B866AC0823019F44A
:100F900084E0898765C08B859C852B893C89821B71
:100FA000930B9C878B872D853E854F855889ED88CF
:100FB000FE880F89188D2E153F054007510738F41C
:100FC000220F331F441F551F01979C878B876FE1AA
:100FD00070E0A12CB12CC12CA0E4DA2E80E090E0CE
:100FE000DC012E153F054007510740F08A299B2957
:100FF000AC29BD292E193F09400B510BD694C7943B
:10100000B794A794220F331F441F551F615070409F
:1010100041F76FE7E62EF12C012D112DE822F92280
:101020000A231B2360E4E616F1040105110561F4AF
:1010300087FD0AC0211531054105510529F0805C65
:101040009F4FAF4FBF4F80788D879E87AF87B88BFC
:101050008E01075F1F4F04C0870102C006E111E047
:10106000C8010E9419096896EAE00C94CD0AA8E12B
:10107000B0E0EDE3F8E00C94B50A69837A838B83E2
:101080009C832D833E834F8358878E01075F1F4FBC
:10109000CE010196B8010E94E70981E1E82EF12C0A
:1010A000EC0EFD1ECE010596B7010E94E709898569
:1010B000823040F08989823028F0C801B7010E944F
:1010C000500A01C08FEF6896E6E00C94D10AA8E1BF
:1010D000B0E0EDE6F8E00C94B50A69837A838B837F
:1010E0009C832D833E834F8358878E01075F1F4F5C
:1010F000CE010196B8010E94E70981E1E82EF12CAA
:10110000EC0EFD1ECE010596B7010E94E709898508
:10111000823040F08989823028F0C801B7010E94EE
:10112000500A01C08FEF6896E6E00C94D10AA8E15E
:10113000B0E0EDE9F8E00C94B50A69837A838B831B
:101140009C832D833E834F8358878E01075F1F4FFB
:10115000CE010196B8010E94E70981E1E82EF12C49
:10116000EC0EFD1ECE010596B7010E94E7098985A8
:10117000823040F08989823028F0C801B7010E948E
:10118000500A01C081E06896E6E00C94D10AACE018
:10119000B0E0EDECF8E00C94B90A69837A838B83B4
:1011A0009C83CE010196BE016B5F7F4F0E94E709D1
:1011B0008D81823081F1823070F1843021F48E8112
:1011C000882369F10AC02F81388537FD24C06E81DC
:1011D0002F3131053CF0662311F120E030E040E092
:1011E00050E821C08EE190E0821B930B29853A855F
:1011F0004B855C8504C056954795379527958A950C
:10120000D2F7662381F050954095309521953F4F58
:101210004F4F5F4F08C020E030E0A90104C02FEF1E
:101220003FEF4FEF5FE7B901CA012C96E2E00C9463
:10123000D50AEF92FF920F931F93CF93DF93FC0198
:10124000248135814681578161818081823020F4FB
:101250004061EFEFF0E0A3C0843009F49BC082301E
:1012600009F492C0211531054105510509F48FC0DB
:101270000280F381E02D8FEFE238F8070CF05AC0BE
:10128000C2E8DFEFCE1BDF0BCA31D1056CF5790167
:101290008A010C2E04C016950795F794E7940A94DA
:1012A000D2F781E090E0A0E0B0E00C2E04C0880FFF
:1012B000991FAA1FBB1F0A94D2F70197A109B10970
:1012C00082239323A423B52321E030E040E050E0C3
:1012D0000097A105B10519F420E030E0A9012E29FD
:1012E0003F29402B512B03C020E030E0A901DA0157
:1012F000C9018F779070A070B07080349105A105FE
:10130000B10539F427FF09C0205C3F4F4F4F5F4FB5
:1013100004C0215C3F4F4F4F5F4FE1E0F0E02030D1
:1013200080E0380780E0480780E4580728F5E0E0CF
:10133000F0E022C0E038F1056CF5E158FF4FDA012A
:10134000C9018F779070A070B07080349105A105AD
:10135000B10539F427FF09C0205C3F4F4F4F5F4F65
:1013600004C0215C3F4F4F4F5F4F57FF05C056955C
:10137000479537952795319687E056954795379548
:1013800027958A95D1F70BC0E0E0F0E005C0E0E0DA
:10139000F0E005C0EFEFF0E020E030E0A9018E2F93
:1013A000879588278795942F9F77679566276795F8
:1013B000E695E22EA92FA82BFE2FF62B622F732F76
:1013C0008A2F9F2FCDB7DEB7E6E00C94D10ADC015F
:1013D000FB012C9111963C91119712968C911297CA
:1013E000482F4F7750E0982F991F9927991F1396F0
:1013F0006C911397862F880F892B90E0661F6627C4
:10140000661F6183009739F52115310541055105A6
:1014100011F482E029C082E89FEF9383828367E022
:10142000220F331F441F551F6A95D1F783E0808335
:1014300009C0220F331F441F551F828193810197DA
:1014400093838283203080E0380780E0480780E47F
:10145000580778F320C08F3F910579F421153105A5
:101460004105510519F484E08083089544FF03C0C9
:1014700081E0808310C010820EC08F57904093830C
:10148000828383E0808387E0220F331F441F551F30
:101490008A95D1F750642483358346835783089512
:1014A000FC01DB019081923008F449C08C918230BC
:1014B00008F445C0943051F461818430B1F511963F
:1014C0002C91119730E0261B310941C0843021F066
:1014D000923041F48230B1F111968C9111978823AA
:1014E000A1F12DC06181823001F111968C9111978B
:1014F0006817D9F42281338112968D919C911397AC
:101500008217930794F028173907BCF0248135819E
:101510004681578114968D919D910D90BC91A02D7F
:1015200082179307A407B50718F4662341F00DC08E
:10153000281739074A075B0728F4662331F021E0B2
:1015400030E005C020E030E002C02FEF3FEFC901DE
:1015500008952F923F924F925F926F927F928F9257
:101560009F92AF92BF92CF92DF92EF92FF920F9332
:101570001F93CF93DF93CDB7DEB7CA1BDB0B0FB63C
:10158000F894DEBF0FBECDBF09942A8839884888F9
:101590005F846E847D848C849B84AA84B984C8848F
:1015A000DF80EE80FD800C811B81AA81B981CE0F86
:1015B000D11D0FB6F894DEBF0FBECDBFED0108956B
:0415C000F894FFCFCD
:1015C4003734314E383532303936333D2F782D2B80
:0E15D40068656C6C6F000000000000000000F5
:00000001FF
