:100000000C9434000C9451000C9451000C94510049
:100010000C9451000C9451000C9451000C9451001C
:100020000C9451000C9451000C9451000C9451000C
:100030000C9451000C9451000C9451000C945100FC
:100040000C9451000C9451000C9451000C945100EC
:100050000C9451000C9451000C9451000C945100DC
:100060000C9451000C94510011241FBECFEFD8E026
:10007000DEBFCDBF11E0A0E0B1E0E8EBFAE102C0E5
:1000800005900D92AE31B107D9F711E0AEE1B1E0C4
:1000900001C01D92AF31B107E1F70E9492060C94A6
:1000A0005A0D0C9400000F931F93DF93CF93CDB79D
:1000B000DEB76A970FB6F894DEBF0FBECDBF898F4B
:1000C0006A8F8AE290E02FEFFC01208385E290E0C6
:1000D000298DFC0120838BE290E02A8DFC01208396
:1000E00088E290E02FEFFC01208388E290E02DEF82
:1000F000FC01208380E090E0A0E8BFE389839A833D
:10010000AB83BC8369817A818B819C812BEA3AEA3B
:100110004AEA50E40E940909DC01CB018D839E83E9
:10012000AF83B88711E06D817E818F81988520E053
:1001300030E040E85FE30E94110B88230CF010E0F0
:10014000112319F081E08987A3C011E06D817E81C0
:100150008F81988520E030E04FE753E40E94B10A98
:1001600018160CF010E0112309F489C069817A8116
:100170008B819C8120E030E04AE754E40E94030A2E
:10018000DC01CB018A879B87AC87BD876A857B852D
:100190008C859D8520E030E04AE755E40E940909FE
:1001A000DC01CB018E879F87A88BB98B11E06E8510
:1001B0007F858889998920E030E040E85FE30E94EC
:1001C000110B88230CF010E0112329F081E090E05E
:1001D0009B8B8A8B46C011E06E857F8588899989C3
:1001E00020E03FEF4FE757E40E94B10A18160CF0E9
:1001F00010E0112361F16A857B858C859D8520E067
:1002000030E040E251E40E940909DC01CB01BC016D
:10021000CD010E943507DC01CB019B8B8A8B12C07C
:1002200080E991E09D8B8C8B8C899D898C01C80124
:100230000197F1F78C011D8B0C8B8A899B890197A3
:100240009B8B8A8B8A899B89009751F728C06E8582
:100250007F85888999890E943507DC01CB019B8BBA
:100260008A8B8A899B899F8B8E8B8E899F898C0133
:10027000F8013197F1F78F011F8B0E8B10C06D8144
:100280007E818F8198850E943507DC01CB018987AB
:100290008985888F888D182F1A95F1F7188F88E235
:1002A00090E02FEFFC0120836A960FB6F894DEBF32
:1002B0000FBECDBFCF91DF911F910F910895DF93B6
:1002C000CF93CDB7DEB784E290E02FEFFC0120831F
:1002D00087E290E02FEFFC01208383E061E80E9439
:1002E0005300CF91DF9108950F931F93DF93CF9326
:1002F000CDB7DEB761970FB6F894DEBF0FBECDBFA6
:10030000888B698B198280E068890E9453008989F3
:10031000898389818260898381E069810E94530099
:1003200080E090E0A0E8BFE38A839B83AC83BD8339
:100330006A817B818C819D8120E030E04AE755E431
:100340000E940909DC01CB018E839F83A887B987AE
:1003500011E06E817F818885998520E030E040E85A
:100360005FE30E94110B88230CF010E0112329F0A9
:1003700081E090E09B878A8746C011E06E817F8193
:100380008885998520E03FEF4FE757E40E94B10A46
:1003900018160CF010E0112361F16A817B818C81C9
:1003A0009D8120E030E040E251E40E940909DC0137
:1003B000CB01BC01CD010E943507DC01CB019B873D
:1003C0008A8712C080E991E09D878C878C859D8506
:1003D0008C01C8010197F1F78C011D870C878A8574
:1003E0009B8501979B878A878A859B85009751F714
:1003F00017C06E817F81888599850E943507DC0151
:10040000CB019B878A878A859B859F878E878E8570
:100410009F858C01C8010197F1F78C011F870E871A
:1004200089818D7F898381E069810E945300619673
:100430000FB6F894DEBF0FBECDBFCF91DF911F91F5
:100440000F910895DF93CF93CDB7DEB788E360E0D7
:100450000E94740181E060E00E9474018EE060E01F
:100460000E947401CF91DF910895DF93CF930F9293
:10047000CDB7DEB78983898161E00E9474010F9056
:10048000CF91DF910895DF93CF9300D0CDB7DEB742
:100490009A8389830BC089819A81FC0180810E94A3
:1004A000350289819A8101969A83898389819A810B
:1004B000FC018081882379F70F900F90CF91DF9115
:1004C00008950F931F93DF93CF93CDB7DEB72F9788
:1004D0000FB6F894DEBF0FBECDBF8F878AE290E0E3
:1004E00020EFFC01208385E290E022E0FC012083E4
:1004F0008BE290E02F85FC01208388E290E02FEFD3
:10050000FC01208388E290E02DEFFC01208380E055
:1005100090E0A0E2B1E489839A83AB83BC836981D4
:100520007A818B819C8120E030E04AE755E40E948B
:100530000909DC01CB018D839E83AF83B88711E06D
:100540006D817E818F81988520E030E040E85FE317
:100550000E94110B88230CF010E0112329F081E098
:1005600090E09A87898746C011E06D817E818F81F6
:10057000988520E03FEF4FE757E40E94B10A181634
:100580000CF010E0112361F169817A818B819C81EB
:1005900020E030E040E251E40E940909DC01CB0197
:1005A000BC01CD010E943507DC01CB019A87898708
:1005B00012C080E991E09C878B878B859C858C019C
:1005C000C8010197F1F78C011C870B8789859A85F3
:1005D00001979A87898789859A85009751F717C06F
:1005E0006D817E818F8198850E943507DC01CB016A
:1005F0009A87898789859A859E878D878D859E852F
:100600008C01F8013197F1F78F011E870D8788E281
:1006100090E02FEFFC0120832F960FB6F894DEBFF9
:100620000FBECDBFCF91DF911F910F9108950F9312
:100630001F93DF93CF93CDB7DEB72F970FB6F89404
:10064000DEBF0FBECDBF8AE290E0FC01108285E2E2
:1006500090E022E0FC01208388E290E02FEFFC0193
:10066000208388E290E02EEFFC01208389E290E075
:10067000FC018081898380E090E0A0E2B1E48A837C
:100680009B83AC83BD836A817B818C819D8120E0CB
:1006900030E04AE755E40E940909DC01CB018E8372
:1006A0009F83A887B98711E06E817F8188859985AE
:1006B00020E030E040E85FE30E94110B88230CF05B
:1006C00010E0112329F081E090E09B878A8746C0E3
:1006D00011E06E817F818885998520E03FEF4FE7AB
:1006E00057E40E94B10A18160CF010E0112361F1D2
:1006F0006A817B818C819D8120E030E040E251E481
:100700000E940909DC01CB01BC01CD010E94350723
:10071000DC01CB019B878A8712C080E991E09D872D
:100720008C878C859D858C01C8010197F1F78C0120
:100730001D870C878A859B8501979B878A878A8579
:100740009B85009751F717C06E817F8188859985B9
:100750000E943507DC01CB019B878A878A859B85B0
:100760009F878E878E859F858C01F8013197F1F7E1
:100770008F011F870E8788E290E02FEFFC01208316
:1007800089812F960FB6F894DEBF0FBECDBFCF91F3
:10079000DF911F910F9108950F931F93DF93CF93D4
:1007A000CDB7DEB7EE970FB6F894DEBF0FBECDBF64
:1007B0008FEE8BAF8FED8CAF8FEB8DAF8FE78EAF62
:1007C00019825CC28981882F90E09E01255C3F4F91
:1007D000820F931FFC0180810E9461020E94170317
:1007E0008A838A818F708A838A81882F90E08B30F8
:1007F000910509F428C18C3091052CF487309105BE
:1008000009F4ADC138C28D30910509F490C08E3025
:10081000910509F030C280E090E0A6E9B3E48B8353
:100820009C83AD83BE836B817C818D819E8120E022
:1008300030E04AE755E40E940909DC01CB018F83CF
:100840009887A987BA8711E06F81788589859A850D
:1008500020E030E040E85FE30E94110B88230CF0B9
:1008600010E0112329F081E090E09C878B8746C03F
:1008700011E06F81788589859A8520E03FEF4FE709
:1008800057E40E94B10A18160CF010E0112361F130
:100890006B817C818D819E8120E030E040E251E4DB
:1008A0000E940909DC01CB01BC01CD010E94350782
:1008B000DC01CB019C878B8712C080E991E09E8789
:1008C0008D878D859E858C01C8010197F1F78C017C
:1008D0001E870D878B859C8501979C878B878B85D1
:1008E0009C85009751F717C06F81788589859A8517
:1008F0000E943507DC01CB019C878B878B859C850B
:10090000988B8F878F8598898C01F8013197F1F743
:100910008F01188B0F878981882F90E0880F991F8E
:10092000880F991F80509F4FFC018081ACC180E0EF
:1009300090E0A6E9B3E4898B9A8BAB8BBC8B698979
:100940007A898B899C8920E030E04AE755E40E944F
:100950000909DC01CB018D8B9E8BAF8BB88F11E029
:100960006D897E898F89988D20E030E040E85FE3D3
:100970000E94110B88230CF010E0112329F081E074
:1009800090E09A8F898F46C011E06D897E898F89AA
:10099000988D20E03FEF4FE757E40E94B10A181608
:1009A0000CF010E0112361F169897A898B899C89A7
:1009B00020E030E040E251E40E940909DC01CB0173
:1009C000BC01CD010E943507DC01CB019A8F898FD4
:1009D00012C080E991E09C8F8B8F8B8D9C8D8C0158
:1009E000C8010197F1F78C011C8F0B8F898D9A8DAF
:1009F00001979A8F898F898D9A8D009751F717C02B
:100A00006D897E898F89988D0E943507DC01CB0125
:100A10009A8F898F898D9A8D9E8F8D8F8D8D9E8DCA
:100A20008C01F8013197F1F78F011E8F0D8F8981AD
:100A3000882F90E0880F991F880F991F8F5F9E4F16
:100A4000FC01808120C180E090E0A6E9B3E48F8FB3
:100A500098A3A9A3BAA36F8D78A189A19AA120E038
:100A600030E04AE755E40E940909DC01CB018BA381
:100A70009CA3ADA3BEA311E06BA17CA18DA19EA1FF
:100A800020E030E040E85FE30E94110B88230CF087
:100A900010E0112329F081E090E098A78FA346C0D1
:100AA00011E06BA17CA18DA19EA120E03FEF4FE75B
:100AB00057E40E94B10A18160CF010E0112361F1FE
:100AC0006F8D78A189A19AA120E030E040E251E445
:100AD0000E940909DC01CB01BC01CD010E94350750
:100AE000DC01CB0198A78FA312C080E991E09AA7FF
:100AF00089A789A59AA58C01C8010197F1F78C01F6
:100B00001AA709A78FA198A5019798A78FA38FA1CE
:100B100098A5009751F717C06BA17CA18DA19EA14C
:100B20000E943507DC01CB0198A78FA38FA198A560
:100B30009CA78BA78BA59CA58C01F8013197F1F799
:100B40008F011CA70BA78981882F90E0880F991F20
:100B5000880F991F8E5F9E4FFC01808194C080E0BA
:100B600090E0A6E9B3E48DA79EA7AFA7B8AB6DA5AB
:100B70007EA58FA598A920E030E04AE755E40E94C1
:100B80000909DC01CB0189AB9AABABABBCAB11E083
:100B900069A97AA98BA99CA920E030E040E85FE32D
:100BA0000E94110B88230CF010E0112329F081E042
:100BB00090E09EAB8DAB46C011E069A97AA98BA9E4
:100BC0009CA920E03FEF4FE757E40E94B10A1816B6
:100BD0000CF010E0112361F16DA57EA58FA598A9F9
:100BE00020E030E040E251E40E940909DC01CB0141
:100BF000BC01CD010E943507DC01CB019EAB8DAB62
:100C000012C080E991E098AF8FAB8FA998AD8C01AD
:100C1000C8010197F1F78C0118AF0FAB8DA99EA900
:100C200001979EAB8DAB8DA99EA9009751F717C078
:100C300069A97AA98BA99CA90E943507DC01CB017F
:100C40009EAB8DAB8DA99EA99AAF89AF89AD9AADA8
:100C50008C01F8013197F1F78F011AAF09AF898143
:100C6000882F90E0880F991F880F991F8D5F9E4FE6
:100C7000FC01808108C089818F5F898389818430EC
:100C800008F4A0CD9DCDEE960FB6F894DEBF0FBE52
:100C9000CDBFCF91DF911F910F910895DF93CF9337
:100CA00000D000D000D0CDB7DEB79A8389837C8393
:100CB0006B835E834D8326960FB6F894DEBF0FBE1E
:100CC000CDBFCF91DF910895DF93CF9300D000D0B7
:100CD0000F92CDB7DEB79A8389837C836B834D8374
:100CE0000F900F900F900F900F90CF91DF9108957C
:100CF000DF93CF93CDB7DEB7CF91DF910895DF9328
:100D0000CF9300D0CDB7DEB79A8389830F900F9031
:100D1000CF91DF910895DF93CF93CDB7DEB7CF9119
:100D2000DF9108950F931F93DF93CF93CDB7DEB775
:100D30002F970FB6F894DEBF0FBECDBF0E945F01A4
:100D40000E94220280E191E00E94430280E090E054
:100D5000AAE7B4E48A839B83AC83BD836A817B81E9
:100D60008C819D8120E030E04AE755E40E9409092A
:100D7000DC01CB018E839F83A887B98711E06E8148
:100D80007F818885998520E030E040E85FE30E941C
:100D9000110B88230CF010E0112329F081E090E082
:100DA0009B878A8746C011E06E817F8188859985FF
:100DB00020E03FEF4FE757E40E94B10A18160CF00D
:100DC00010E0112361F16A817B818C819D8120E09B
:100DD00030E040E251E40E940909DC01CB01BC0192
:100DE000CD010E943507DC01CB019B878A8712C0A9
:100DF00080E991E09D878C878C859D858C01C80159
:100E00000197F1F78C011D870C878A859B850197D7
:100E10009B878A878A859B85009751F717C06E81CB
:100E20007F81888599850E943507DC01CB019B87EE
:100E30008A878A859B859F878E878E859F858C0173
:100E4000C8010197F1F78C011F870E8781E060E0F0
:100E50000E94740180E860E00E9474010E94CC034B
:100E6000898389810E943502F9CFEF92FF920F9317
:100E70001F937B018C0120E030E040E05FE40E94A2
:100E8000E10A87FD11C0C801B70120E030E040E071
:100E90005FE40E94D8080E94410B9B01AC012050E6
:100EA00030404040504806C0C801B7010E94410B85
:100EB0009B01AC01B901CA011F910F91FF90EF9006
:100EC0000895A0E0B0E0E7E6F7E00C94270DFC0100
:100ED000EA018081823008F438C1DB019C919230B4
:100EE00008F430C1843059F4943009F02EC1918156
:100EF00011968C911197981709F021C126C1943051
:100F000009F420C19230B1F4823009F01EC1CA0147
:100F1000AF0128E0DA010D90AD01DC010D92CD01A9
:100F20002150C1F7DB0111968C9111979181892392
:100F300089830AC1823009F405C1C280D380DB01F4
:100F400012966D907C90139724813581468157814C
:100F50001496ED90FD900D911C911797C60186197E
:100F600097095C0197FF04C0AA24BB24A81AB90AF8
:100F7000B0E2AB16B1040CF061C0181619066CF59E
:100F8000370148010A2C04C096948794779467949B
:100F90000A94D2F781E090E0A0E0B0E00A2C04C00F
:100FA000880F991FAA1FBB1F0A94D2F70197A109A6
:100FB000B1098E219F21A023B123EE24FF248701B4
:100FC000E3940097A105B10519F4EE24FF248701ED
:100FD000E628F728082919293CC00097D1F1CA0C46
:100FE000DB1C39014A010A2C04C09694879477943B
:100FF00067940A94D2F781E090E0A0E0B0E00A2C78
:1010000004C0880F991FAA1FBB1F0A94D2F701972B
:10101000A109B10982239323A423B52321E030E061
:1010200040E050E00097A105B10519F420E030E060
:10103000A90126293729482959290BC06C147D0498
:1010400024F4EE24FF24870104C0630120E030E093
:10105000A9018181FB019181891709F445C0882389
:1010600049F0D801C701821B930BA40BB50B9C015F
:10107000AD0104C02E193F09400B510B57FD04C0B0
:101080001982DB82CA820BC081E08983DB82CA823B
:1010900050954095309521953F4F4F4F5F4F2C8392
:1010A0003D834E835F830DC0880F991FAA1FBB1F0E
:1010B0008C839D83AE83BF838A819B8101979B83B1
:1010C0008A838C819D81AE81BF819C01AD012150BD
:1010D0003040404050402F3FEFEF3E07EFEF4E07CC
:1010E000EFE35E0708F30BC08983DB82CA822E0D13
:1010F0003F1D401F511F2C833D834E835F8383E040
:1011000088832C813D814E815F8157FF1DC0DA01AC
:10111000C90181709070A070B07056954795379551
:101120002795822B932BA42BB52B8C839D83AE8389
:10113000BF838A819B8101969B838A8305C0E6E1F8
:10114000F1E003C0FB0101C0FE01CF01CDB7DEB766
:10115000EEE00C94430DA0E2B0E0E1EBF8E00C947B
:101160002F0D69837A838B839C832D833E834F83EA
:10117000588789E0E82EF12CEC0EFD1ECE01019679
:10118000B7010E94610C8E010F5E1F4FCE010596C4
:10119000B8010E94610CC701B801AE01475E5F4F04
:1011A0000E9461070E94930BA096E6E00C944B0D01
:1011B000A0E2B0E0EEEDF8E00C942F0D69837A83A5
:1011C0008B839C832D833E834F8358878E01075FDB
:1011D0001F4FCE010196B8010E94610C91E1E92EEA
:1011E000F12CEC0EFD1ECE010596B7010E94610C9C
:1011F0008A8991E089278A8BC801B701AE01475ED1
:101200005F4F0E9461070E94930BA096E6E00C944A
:101210004B0DA0E2B0E0EFE0F9E00C94230D698300
:101220007A838B839C832D833E834F835887CE01A3
:101230000196BE01675F7F4F0E94610CCE0105964B
:10124000BE016F5E7F4F0E94610C9985923078F0ED
:1012500089898230C0F0943019F4823041F4CBC0D7
:10126000843019F4923079F4C6C0923051F481E0A0
:101270002A859A89291709F480E08A87CE01099680
:10128000BCC0823051F481E02A859A89291709F47B
:1012900080E08A8BCE014196B0C06D847E848F84BD
:1012A0009888ED88FE880F89188DE0E2F0E080E0F4
:1012B00090E0DC01AA24BB24650120E030E0A90114
:1012C000B3016170707061157105D1F02E0D3F1D75
:1012D000401F511F15012601280E391E4A1E5B1E94
:1012E00081E090E0A0E0B0E02E153F0540075107F7
:1012F00018F080E090E0DC01820D931DA41DB51D67
:10130000AA0CBB1CCC1CDD1C17FF09C061E0262EFB
:10131000312C412C512CA228B328C428D528319730
:1013200049F0EE0CFF1C001F111F969487947794D0
:101330006794C6CF6B897C89EB85FC856E0F7F1F18
:101340006E5F7F4F7C8F6B8F61E0EA857A89E7174C
:1013500009F460E06A8F6B8D7C8D10C0FC01E17038
:10136000F070309729F05695479537952795506836
:10137000B695A795979587956F5F7F4FB7FDEECF91
:101380000CC0880F991FAA1FBB1F57FD8160220F39
:10139000331F441F551F615070408030E0E09E07AE
:1013A000E0E0AE07E0E4BE0760F36B8F7C8F6FE791
:1013B000E62EF12C012D112DE822F9220A231B2300
:1013C00060E4E616F1040105110561F487FD0AC029
:1013D000211531054105510529F0805C9F4FAF4F24
:1013E000BF4F80788D8F9E8FAF8FB8A383E0898F9A
:1013F000CE01499602C086E191E00E94930BA0962F
:10140000E2E10C943F0DA8E1B0E0E9E0FAE00C94D1
:101410002B0D69837A838B839C832D833E834F833B
:1014200058878E01075F1F4FCE010196B8010E94B9
:10143000610C81E1E82EF12CEC0EFD1ECE0105962B
:10144000B7010E94610C9985923008F483C08989A4
:10145000823008F47BC02A853A8923272A87943072
:1014600011F0923021F4981709F06CC071C08430EB
:1014700039F41D861E861F86188A1C861B866AC044
:10148000823019F484E0898765C08B859C852B891F
:101490003C89821B930B9C878B872D853E854F85CE
:1014A0005889ED88FE880F89188D2E153F05400755
:1014B000510738F4220F331F441F551F01979C8793
:1014C0008B876FE170E0A12CB12CC12CA0E4DA2E47
:1014D00080E090E0DC012E153F054007510740F009
:1014E0008A299B29AC29BD292E193F09400B510B94
:1014F000D694C794B794A794220F331F441F551F47
:101500006150704041F76FE7E62EF12C012D112D4F
:10151000E822F9220A231B2360E4E616F104010500
:10152000110561F487FD0AC02115310541055105FA
:1015300029F0805C9F4FAF4FBF4F80788D879E878B
:10154000AF87B88B8E01075F1F4F04C0870102C0B1
:1015500006E111E0C8010E94930B6896EAE00C9442
:10156000470DA8E1B0E0E7EBFAE00C942F0D69839A
:101570007A838B839C832D833E834F8358878E0190
:10158000075F1F4FCE010196B8010E94610C81E1F7
:10159000E82EF12CEC0EFD1ECE010596B7010E943F
:1015A000610C8985823040F08989823028F0C80139
:1015B000B7010E94CA0C01C08FEF6896E6E00C9458
:1015C0004B0DA8E1B0E0E7EEFAE00C942F0D698333
:1015D0007A838B839C832D833E834F8358878E0130
:1015E000075F1F4FCE010196B8010E94610C81E197
:1015F000E82EF12CEC0EFD1ECE010596B7010E94DF
:10160000610C8985823040F08989823028F0C801D8
:10161000B7010E94CA0C01C08FEF6896E6E00C94F7
:101620004B0DA8E1B0E0E7E1FBE00C942F0D6983DE
:101630007A838B839C832D833E834F8358878E01CF
:10164000075F1F4FCE010196B8010E94610C81E136
:10165000E82EF12CEC0EFD1ECE010596B7010E947E
:10166000610C8985823040F08989823028F0C80178
:10167000B7010E94CA0C01C081E06896E6E00C94B4
:101680004B0DACE0B0E0E7E4FBE00C94330D698374
:101690007A838B839C83CE010196BE016B5F7F4F63
:1016A0000E94610C8D81823081F1823070F1843032
:1016B00021F48E81882369F10AC02F81388537FD96
:1016C00024C06E812F3131053CF0662311F120E0FA
:1016D00030E040E050E821C08EE190E0821B930BA7
:1016E00029853A854B855C8504C056954795379585
:1016F00027958A95D2F7662381F0509540953095CD
:1017000021953F4F4F4F5F4F08C020E030E0A901C7
:1017100004C02FEF3FEF4FEF5FE7B901CA012C96EE
:10172000E2E00C944F0DEF92FF920F931F93CF9333
:10173000DF93FC012481358146815781618180815D
:10174000823020F44061EFEFF0E0A3C0843009F470
:101750009BC0823009F492C0211531054105510525
:1017600009F48FC00280F381E02D8FEFE238F80793
:101770000CF05AC0C2E8DFEFCE1BDF0BCA31D10537
:101780006CF579018A010C2E04C016950795F79423
:10179000E7940A94D2F781E090E0A0E0B0E00C2E4C
:1017A00004C0880F991FAA1FBB1F0A94D2F7019784
:1017B000A109B10982239323A423B52321E030E0BA
:1017C00040E050E00097A105B10519F420E030E0B9
:1017D000A9012E293F29402B512B03C020E030E0E6
:1017E000A901DA01C9018F779070A070B0708034C0
:1017F0009105A105B10539F427FF09C0205C3F4FD1
:101800004F4F5F4F04C0215C3F4F4F4F5F4FE1E0B0
:10181000F0E0203080E0380780E0480780E4580797
:1018200028F5E0E0F0E022C0E038F1056CF5E15881
:10183000FF4FDA01C9018F779070A070B0708034CB
:101840009105A105B10539F427FF09C0205C3F4F80
:101850004F4F5F4F04C0215C3F4F4F4F5F4F57FFCB
:1018600005C05695479537952795319687E056954B
:101870004795379527958A95D1F70BC0E0E0F0E0C2
:1018800005C0E0E0F0E005C0EFEFF0E020E030E080
:10189000A9018E2F879588278795942F9F77679525
:1018A00066276795E695E22EA92FA82BFE2FF62B2B
:1018B000622F732F8A2F9F2FCDB7DEB7E6E00C94EF
:1018C0004B0DDC01FB012C9111963C911197129666
:1018D0008C911297482F4F7750E0982F991F992796
:1018E000991F13966C911397862F880F892B90E080
:1018F000661F6627661F6183009739F5211531053C
:101900004105510511F482E029C082E89FEF9383DD
:10191000828367E0220F331F441F551F6A95D1F75A
:1019200083E0808309C0220F331F441F551F82812B
:101930009381019793838283203080E0380780E091
:10194000480780E4580778F320C08F3F910579F469
:10195000211531054105510519F484E0808308956E
:1019600044FF03C081E0808310C010820EC08F57F7
:1019700090409383828383E0808387E0220F331F2C
:10198000441F551F8A95D1F75064248335834683BD
:1019900057830895FC01DB019081923008F449C01F
:1019A0008C91823008F445C0943051F461818430C8
:1019B000B1F511962C91119730E0261B310941C0E9
:1019C000843021F0923041F48230B1F111968C9143
:1019D00011978823A1F12DC06181823001F1119608
:1019E0008C9111976817D9F42281338112968D91C9
:1019F0009C9113978217930794F028173907BCF02E
:101A0000248135814681578114968D919D910D9049
:101A1000BC91A02D82179307A407B50718F466237D
:101A200041F00DC0281739074A075B0728F46623E1
:101A300031F021E030E005C020E030E002C02FEFBF
:101A40003FEFC90108952F923F924F925F926F929C
:101A50007F928F929F92AF92BF92CF92DF92EF923E
:101A6000FF920F931F93CF93DF93CDB7DEB7CA1BBF
:101A7000DB0B0FB6F894DEBF0FBECDBF09942A88EA
:101A8000398848885F846E847D848C849B84AA8492
:101A9000B984C884DF80EE80FD800C811B81AA811F
:101AA000B981CE0FD11D0FB6F894DEBF0FBECDBFEA
:081AB000ED010895F894FFCF49
:101AB8003734314E383532303936333D2F782D2B87
:0E1AC80068656C6C6F000000000000000000FC
:00000001FF
