:100000000C9434000C9451000C9451000C94510049
:100010000C9451000C9451000C9451000C9451001C
:100020000C9451000C9451000C9451000C9451000C
:100030000C9451000C9451000C9451000C945100FC
:100040000C9451000C9451000C9451000C945100EC
:100050000C9451000C9451000C9451000C945100DC
:100060000C9451000C94510011241FBECFEFD8E026
:10007000DEBFCDBF11E0A0E0B1E0E6EEFDE102C0E1
:1000800005900D92A832B107D9F711E0A8E2B1E0CE
:1000900001C01D92A634B107E1F70E943C070C9401
:1000A000F10E0C9400000F931F93DF93CF93CDB705
:1000B000DEB76A970FB6F894DEBF0FBECDBF898F4B
:1000C0006A8F8AE290E02FEFFC01208385E290E0C6
:1000D000298DFC0120838BE290E02A8DFC01208396
:1000E00088E290E02FEFFC01208388E290E02DEF82
:1000F000FC01208380E090E0A0E8BFE389839A833D
:10010000AB83BC8369817A818B819C812BEA3AEA3B
:100110004AEA50E40E941B0ADC01CB018D839E83D6
:10012000AF83B88711E06D817E818F81988520E053
:1001300030E040E85FE30E94230C88230CF010E0DD
:10014000112319F081E08987A3C011E06D817E81C0
:100150008F81988520E030E04FE753E40E94C30B85
:1001600018160CF010E0112309F489C069817A8116
:100170008B819C8120E030E04AE754E40E94150B1B
:10018000DC01CB018A879B87AC87BD876A857B852D
:100190008C859D8520E030E04AE755E40E941B0AEB
:1001A000DC01CB018E879F87A88BB98B11E06E8510
:1001B0007F858889998920E030E040E85FE30E94EC
:1001C000230C88230CF010E0112329F081E090E04B
:1001D0009B8B8A8B46C011E06E857F8588899989C3
:1001E00020E03FEF4FE757E40E94C30B18160CF0D6
:1001F00010E0112361F16A857B858C859D8520E067
:1002000030E040E251E40E941B0ADC01CB01BC015A
:10021000CD010E944708DC01CB019B8B8A8B12C069
:1002200080E991E09D8B8C8B8C899D898C01C80124
:100230000197F1F78C011D8B0C8B8A899B890197A3
:100240009B8B8A8B8A899B89009751F728C06E8582
:100250007F85888999890E944708DC01CB019B8BA7
:100260008A8B8A899B899F8B8E8B8E899F898C0133
:10027000F8013197F1F78F011F8B0E8B10C06D8144
:100280007E818F8198850E944708DC01CB01898798
:100290008985888F888D182F1A95F1F7188F88E235
:1002A00090E02FEFFC0120836A960FB6F894DEBF32
:1002B0000FBECDBFCF91DF911F910F910895DF93B6
:1002C000CF93CDB7DEB784E290E02FEFFC0120831F
:1002D00087E290E02FEFFC01208383E061E80E9439
:1002E0005300CF91DF9108950F931F93DF93CF9326
:1002F000CDB7DEB761970FB6F894DEBF0FBECDBFA6
:10030000888B698B198280E068890E9453008989F3
:10031000898389818260898381E069810E94530099
:1003200080E090E0A0E8BFE38A839B83AC83BD8339
:100330006A817B818C819D8120E030E04AE755E431
:100340000E941B0ADC01CB018E839F83A887B9879B
:1003500011E06E817F818885998520E030E040E85A
:100360005FE30E94230C88230CF010E0112329F096
:1003700081E090E09B878A8746C011E06E817F8193
:100380008885998520E03FEF4FE757E40E94C30B33
:1003900018160CF010E0112361F16A817B818C81C9
:1003A0009D8120E030E040E251E40E941B0ADC0124
:1003B000CB01BC01CD010E944708DC01CB019B872A
:1003C0008A8712C080E991E09D878C878C859D8506
:1003D0008C01C8010197F1F78C011D870C878A8574
:1003E0009B8501979B878A878A859B85009751F714
:1003F00017C06E817F81888599850E944708DC013E
:10040000CB019B878A878A859B859F878E878E8570
:100410009F858C01C8010197F1F78C011F870E871A
:1004200089818D7F898381E069810E945300619673
:100430000FB6F894DEBF0FBECDBFCF91DF911F91F5
:100440000F910895DF93CF93CDB7DEB788E360E0D7
:100450000E94740181E060E00E9474018EE060E01F
:100460000E947401CF91DF910895DF93CF930F9293
:10047000CDB7DEB78983898161E00E9474010F9056
:10048000CF91DF910895DF93CF9300D0CDB7DEB742
:100490009A8389830BC089819A81FC0180810E94A3
:1004A000350289819A8101969A83898389819A810B
:1004B000FC018081882379F70F900F90CF91DF9115
:1004C00008950F931F93DF93CF93CDB7DEB72F9788
:1004D0000FB6F894DEBF0FBECDBF8F878AE290E0E3
:1004E00020EFFC01208385E290E022E0FC012083E4
:1004F0008BE290E02F85FC01208388E290E02FEFD3
:10050000FC01208388E290E02DEFFC01208380E055
:1005100090E0A0E2B1E489839A83AB83BC836981D4
:100520007A818B819C8120E030E04AE755E40E948B
:100530001B0ADC01CB018D839E83AF83B88711E05A
:100540006D817E818F81988520E030E040E85FE317
:100550000E94230C88230CF010E0112329F081E085
:1005600090E09A87898746C011E06D817E818F81F6
:10057000988520E03FEF4FE757E40E94C30B181621
:100580000CF010E0112361F169817A818B819C81EB
:1005900020E030E040E251E40E941B0ADC01CB0184
:1005A000BC01CD010E944708DC01CB019A878987F5
:1005B00012C080E991E09C878B878B859C858C019C
:1005C000C8010197F1F78C011C870B8789859A85F3
:1005D00001979A87898789859A85009751F717C06F
:1005E0006D817E818F8198850E944708DC01CB0157
:1005F0009A87898789859A859E878D878D859E852F
:100600008C01F8013197F1F78F011E870D8788E281
:1006100090E02FEFFC0120832F960FB6F894DEBFF9
:100620000FBECDBFCF91DF911F910F9108950F9312
:100630001F93DF93CF93CDB7DEB72F970FB6F89404
:10064000DEBF0FBECDBF8AE290E0FC01108285E2E2
:1006500090E022E0FC01208388E290E02FEFFC0193
:10066000208388E290E02EEFFC01208389E290E075
:10067000FC018081898380E090E0A0E2B1E48A837C
:100680009B83AC83BD836A817B818C819D8120E0CB
:1006900030E04AE755E40E941B0ADC01CB018E835F
:1006A0009F83A887B98711E06E817F8188859985AE
:1006B00020E030E040E85FE30E94230C88230CF048
:1006C00010E0112329F081E090E09B878A8746C0E3
:1006D00011E06E817F818885998520E03FEF4FE7AB
:1006E00057E40E94C30B18160CF010E0112361F1BF
:1006F0006A817B818C819D8120E030E040E251E481
:100700000E941B0ADC01CB01BC01CD010E944708FD
:10071000DC01CB019B878A8712C080E991E09D872D
:100720008C878C859D858C01C8010197F1F78C0120
:100730001D870C878A859B8501979B878A878A8579
:100740009B85009751F717C06E817F8188859985B9
:100750000E944708DC01CB019B878A878A859B859D
:100760009F878E878E859F858C01F8013197F1F7E1
:100770008F011F870E8788E290E02FEFFC01208316
:1007800089812F960FB6F894DEBF0FBECDBFCF91F3
:10079000DF911F910F9108950F931F93DF93CF93D4
:1007A000CDB7DEB7EE970FB6F894DEBF0FBECDBF64
:1007B0008FEE8BAF8FED8CAF8FEB8DAF8FE78EAF62
:1007C00019825CC28981882F90E09E01255C3F4F91
:1007D000820F931FFC0180810E9461020E94170317
:1007E0008A838A818F708A838A81882F90E08B30F8
:1007F000910509F428C18C3091052CF487309105BE
:1008000009F4ADC138C28D30910509F490C08E3025
:10081000910509F030C280E090E0A6E9B3E48B8353
:100820009C83AD83BE836B817C818D819E8120E022
:1008300030E04AE755E40E941B0ADC01CB018F83BC
:100840009887A987BA8711E06F81788589859A850D
:1008500020E030E040E85FE30E94230C88230CF0A6
:1008600010E0112329F081E090E09C878B8746C03F
:1008700011E06F81788589859A8520E03FEF4FE709
:1008800057E40E94C30B18160CF010E0112361F11D
:100890006B817C818D819E8120E030E040E251E4DB
:1008A0000E941B0ADC01CB01BC01CD010E9447085C
:1008B000DC01CB019C878B8712C080E991E09E8789
:1008C0008D878D859E858C01C8010197F1F78C017C
:1008D0001E870D878B859C8501979C878B878B85D1
:1008E0009C85009751F717C06F81788589859A8517
:1008F0000E944708DC01CB019C878B878B859C85F8
:10090000988B8F878F8598898C01F8013197F1F743
:100910008F01188B0F878981882F90E0880F991F8E
:10092000880F991F8F5F9E4FFC018081ACC180E0D2
:1009300090E0A6E9B3E4898B9A8BAB8BBC8B698979
:100940007A898B899C8920E030E04AE755E40E944F
:100950001B0ADC01CB018D8B9E8BAF8BB88F11E016
:100960006D897E898F89988D20E030E040E85FE3D3
:100970000E94230C88230CF010E0112329F081E061
:1009800090E09A8F898F46C011E06D897E898F89AA
:10099000988D20E03FEF4FE757E40E94C30B1816F5
:1009A0000CF010E0112361F169897A898B899C89A7
:1009B00020E030E040E251E40E941B0ADC01CB0160
:1009C000BC01CD010E944708DC01CB019A8F898FC1
:1009D00012C080E991E09C8F8B8F8B8D9C8D8C0158
:1009E000C8010197F1F78C011C8F0B8F898D9A8DAF
:1009F00001979A8F898F898D9A8D009751F717C02B
:100A00006D897E898F89988D0E944708DC01CB0112
:100A10009A8F898F898D9A8D9E8F8D8F8D8D9E8DCA
:100A20008C01F8013197F1F78F011E8F0D8F8981AD
:100A3000882F90E0880F991F880F991F8E5F9E4F17
:100A4000FC01808120C180E090E0A6E9B3E48F8FB3
:100A500098A3A9A3BAA36F8D78A189A19AA120E038
:100A600030E04AE755E40E941B0ADC01CB018BA36E
:100A70009CA3ADA3BEA311E06BA17CA18DA19EA1FF
:100A800020E030E040E85FE30E94230C88230CF074
:100A900010E0112329F081E090E098A78FA346C0D1
:100AA00011E06BA17CA18DA19EA120E03FEF4FE75B
:100AB00057E40E94C30B18160CF010E0112361F1EB
:100AC0006F8D78A189A19AA120E030E040E251E445
:100AD0000E941B0ADC01CB01BC01CD010E9447082A
:100AE000DC01CB0198A78FA312C080E991E09AA7FF
:100AF00089A789A59AA58C01C8010197F1F78C01F6
:100B00001AA709A78FA198A5019798A78FA38FA1CE
:100B100098A5009751F717C06BA17CA18DA19EA14C
:100B20000E944708DC01CB0198A78FA38FA198A54D
:100B30009CA78BA78BA59CA58C01F8013197F1F799
:100B40008F011CA70BA78981882F90E0880F991F20
:100B5000880F991F8D5F9E4FFC01808194C080E0BB
:100B600090E0A6E9B3E48DA79EA7AFA7B8AB6DA5AB
:100B70007EA58FA598A920E030E04AE755E40E94C1
:100B80001B0ADC01CB0189AB9AABABABBCAB11E070
:100B900069A97AA98BA99CA920E030E040E85FE32D
:100BA0000E94230C88230CF010E0112329F081E02F
:100BB00090E09EAB8DAB46C011E069A97AA98BA9E4
:100BC0009CA920E03FEF4FE757E40E94C30B1816A3
:100BD0000CF010E0112361F16DA57EA58FA598A9F9
:100BE00020E030E040E251E40E941B0ADC01CB012E
:100BF000BC01CD010E944708DC01CB019EAB8DAB4F
:100C000012C080E991E098AF8FAB8FA998AD8C01AD
:100C1000C8010197F1F78C0118AF0FAB8DA99EA900
:100C200001979EAB8DAB8DA99EA9009751F717C078
:100C300069A97AA98BA99CA90E944708DC01CB016C
:100C40009EAB8DAB8DA99EA99AAF89AF89AD9AADA8
:100C50008C01F8013197F1F78F011AAF09AF898143
:100C6000882F90E0880F991F880F991F8C5F9E4FE7
:100C7000FC01808108C089818F5F898389818430EC
:100C800008F4A0CD9DCDEE960FB6F894DEBF0FBE52
:100C9000CDBFCF91DF911F910F910895DF93CF9337
:100CA00000D000D00F92CDB7DEB79A8389837C83C2
:100CB0006B834D838D818B3239F429813A818B810D
:100CC0009C81820F931F38C08D818D3249F4298118
:100CD0003A818B819C81A901481B590BCA012CC008
:100CE0008D81883761F449815A812B813C81429FF3
:100CF000C001439F900D529F900D11241DC08D8106
:100D00008F32C9F48B819C81009759F480EC60E0AC
:100D10000E94740181E191E00E9443028CE99FEFFF
:100D20000BC089819A812B813C81B9010E94350ECB
:100D30009B01C90101C000C00F900F900F900F9050
:100D40000F90CF91DF910895DF93CF93CDB7DEB7AA
:100D500069970FB6F894DEBF0FBECDBF1A82198215
:100D600014C089819A818A5C9E4FFC0140819E015A
:100D7000265F3F4F89819A81820F931FFC01408338
:100D800089819A8101969A83898389819A818A5C73
:100D90009E4FFC0180818A3340F489819A818A5C6C
:100DA0009E4FFC0180818033E0F689819A818A5CC4
:100DB0009E4FFC0180818D32A1F29E01265F3F4F44
:100DC00089819A81820F931FFC01108289819A8107
:100DD0008A5C9E4FFC0180818D8389819A81019676
:100DE0009A8389831C821B8219C089819A818A5CBB
:100DF0009E4FFC0140819E012E5E3F4F8B819C8166
:100E0000820F931FFC0140838B819C8101969C8300
:100E10008B8389819A8101969A83898389819A81BA
:100E20008A5C9E4FFC0180818D33F9F69E012E5E17
:100E30003F4F89819A81820F931FFC011082CE015E
:100E40000A960E94930E9F838E83CE0142960E9443
:100E5000930E998788878E819F8128853985B9016E
:100E60004D810E944E0669960FB6F894DEBF0FBE04
:100E7000CDBFCF91DF9108950F931F93DF93CF9351
:100E8000CDB7DEB761970FB6F894DEBF0FBECDBF0A
:100E90000E945F010E94220284E860E00E947401C7
:100EA00087E191E00E94430280E090E0AAE7B4E489
:100EB0008C839D83AE83BF836C817D818E819F8176
:100EC00020E030E04AE755E40E941B0ADC01CB0138
:100ED00088879987AA87BB8711E0688579858A8585
:100EE0009B8520E030E040E85FE30E94230C8823EC
:100EF0000CF010E0112329F081E090E09D878C87B1
:100F000046C011E0688579858A859B8520E03FEFA2
:100F10004FE757E40E94C30B18160CF010E01123A2
:100F200061F16C817D818E819F8120E030E040E223
:100F300051E40E941B0ADC01CB01BC01CD010E94DF
:100F40004708DC01CB019D878C8712C080E991E0C6
:100F50009F878E878E859F858C01C8010197F1F749
:100F60008C011F870E878C859D8501979D878C87B7
:100F70008C859D85009751F717C0688579858A858E
:100F80009B850E944708DC01CB019D878C878C855F
:100F90009D85998B888B888999898C01F801319777
:100FA000F1F78F01198B088B81E060E00E947401DA
:100FB00080E860E00E94740101C000001A8219827A
:100FC00041C00E94CC038B838B818E3489F40E94B4
:100FD000220286E391E060E070E040E150E00E9490
:100FE000B10E10922A011092290110922B0134C0E7
:100FF0008B810E94350289819A818A5C9E4F2B8168
:10100000FC0120838B818D33C1F40E94A406909350
:101010002A0180932901898180932B0180912901E4
:1010200090912A01FFEF8C399F0719F41092280143
:1010300013C081E0809328010FC089819A810196B5
:101040009A83898380910001282F30E089819A81D9
:10105000821793070CF4B5CF80912801882309F4F7
:10106000ACCF80EC60E00E947401809129019091E6
:101070002A012CE231E0B9014AE050E00E94B80EAA
:101080008CE291E00E9443021092280197CFEF92E8
:10109000FF920F931F937B018C0120E030E040E032
:1010A0005FE40E94F30B87FD11C0C801B70120E087
:1010B00030E040E05FE40E94EA090E94530C9B018B
:1010C000AC01205030404040504806C0C801B70134
:1010D0000E94530C9B01AC01B901CA011F910F91F1
:1010E000FF90EF900895A0E0B0E0E9E7F8E00C94FD
:1010F000600EFC01EA018081823008F438C1DB0116
:101100009C91923008F430C1843059F4943009F045
:101110002EC1918111968C911197981709F021C1D8
:1011200026C1943009F420C19230B1F4823009F024
:101130001EC1CA01AF0128E0DA010D90AD01DC014A
:101140000D92CD012150C1F7DB0111968C911197C1
:101150009181892389830AC1823009F405C1C28043
:10116000D380DB0112966D907C901397248135819A
:10117000468157811496ED90FD900D911C91179723
:10118000C601861997095C0197FF04C0AA24BB24F5
:10119000A81AB90AB0E2AB16B1040CF061C0181677
:1011A00019066CF5370148010A2C04C096948794FF
:1011B000779467940A94D2F781E090E0A0E0B0E0E1
:1011C0000A2C04C0880F991FAA1FBB1F0A94D2F7CC
:1011D0000197A109B1098E219F21A023B123EE24FB
:1011E000FF248701E3940097A105B10519F4EE24CB
:1011F000FF248701E628F728082919293CC0009711
:10120000D1F1CA0CDB1C39014A010A2C04C09694A6
:101210008794779467940A94D2F781E090E0A0E0F5
:10122000B0E00A2C04C0880F991FAA1FBB1F0A94A4
:10123000D2F70197A109B10982239323A423B523EF
:1012400021E030E040E050E00097A105B10519F43D
:1012500020E030E0A90126293729482959290BC067
:101260006C147D0424F4EE24FF24870104C0630180
:1012700020E030E0A9018181FB019181891709F407
:1012800045C0882349F0D801C701821B930BA40BEA
:10129000B50B9C01AD0104C02E193F09400B510B49
:1012A00057FD04C01982DB82CA820BC081E08983AA
:1012B000DB82CA8250954095309521953F4F4F4F24
:1012C0005F4F2C833D834E835F830DC0880F991F32
:1012D000AA1FBB1F8C839D83AE83BF838A819B81A2
:1012E00001979B838A838C819D81AE81BF819C0104
:1012F000AD0121503040404050402F3FEFEF3E07BE
:10130000EFEF4E07EFE35E0708F30BC08983DB8244
:10131000CA822E0D3F1D401F511F2C833D834E83DB
:101320005F8383E088832C813D814E815F8157FFFD
:101330001DC0DA01C90181709070A070B07056951F
:10134000479537952795822B932BA42BB52B8C8310
:101350009D83AE83BF838A819B8101969B838A8311
:1013600005C0EFE1F1E003C0FB0101C0FE01CF01C8
:10137000CDB7DEB7EEE00C947C0EA0E2B0E0E3EC7B
:10138000F9E00C94680E69837A838B839C832D83A8
:101390003E834F83588789E0E82EF12CEC0EFD1E2A
:1013A000CE010196B7010E94730D8E010F5E1F4F93
:1013B000CE010596B8010E94730DC701B801AE01B8
:1013C000475E5F4F0E9473080E94A50CA096E6E05E
:1013D0000C94840EA0E2B0E0E0EFF9E00C94680E0B
:1013E00069837A838B839C832D833E834F835887C5
:1013F0008E01075F1F4FCE010196B8010E94730D49
:1014000091E1E92EF12CEC0EFD1ECE010596B701FF
:101410000E94730D8A8991E089278A8BC801B701E0
:10142000AE01475E5F4F0E9473080E94A50CA09614
:10143000E6E00C94840EA0E2B0E0E1E2FAE00C9465
:101440005C0E69837A838B839C832D833E834F83D9
:101450005887CE010196BE01675F7F4F0E94730DD2
:10146000CE010596BE016F5E7F4F0E94730D998578
:10147000923078F089898230C0F0943019F482304B
:1014800041F4CBC0843019F4923079F4C6C0923064
:1014900051F481E02A859A89291709F480E08A8726
:1014A000CE010996BCC0823051F481E02A859A8928
:1014B000291709F480E08A8BCE014196B0C06D8473
:1014C0007E848F849888ED88FE880F89188DE0E2ED
:1014D000F0E080E090E0DC01AA24BB24650120E07C
:1014E00030E0A901B3016170707061157105D1F030
:1014F0002E0D3F1D401F511F15012601280E391EBC
:101500004A1E5B1E81E090E0A0E0B0E02E153F0592
:101510004007510718F080E090E0DC01820D931D38
:10152000A41DB51DAA0CBB1CCC1CDD1C17FF09C0DB
:1015300061E0262E312C412C512CA228B328C4283E
:10154000D528319749F0EE0CFF1C001F111F96940F
:10155000879477946794C6CF6B897C89EB85FC85EB
:101560006E0F7F1F6E5F7F4F7C8F6B8F61E0EA8510
:101570007A89E71709F460E06A8F6B8D7C8D10C063
:10158000FC01E170F070309729F05695479537953A
:1015900027955068B695A795979587956F5F7F4F6C
:1015A000B7FDEECF0CC0880F991FAA1FBB1F57FDB8
:1015B0008160220F331F441F551F615070408030DF
:1015C000E0E09E07E0E0AE07E0E4BE0760F36B8F6B
:1015D0007C8F6FE7E62EF12C012D112DE822F922E8
:1015E0000A231B2360E4E616F1040105110561F4EA
:1015F00087FD0AC0211531054105510529F0805CA0
:101600009F4FAF4FBF4F80788D8F9E8FAF8FB8A306
:1016100083E0898FCE01499602C08FE191E00E945C
:10162000A50CA096E2E10C94780EA8E1B0E0EBE105
:10163000FBE00C94640E69837A838B839C832D83F7
:101640003E834F8358878E01075F1F4FCE0101965F
:10165000B8010E94730D81E1E82EF12CEC0EFD1E05
:10166000CE010596B7010E94730D9985923008F45A
:1016700083C08989823008F47BC02A853A89232770
:101680002A87943011F0923021F4981709F06CC039
:1016900071C0843039F41D861E861F86188A1C8608
:1016A0001B866AC0823019F484E0898765C08B8507
:1016B0009C852B893C89821B930B9C878B872D856E
:1016C0003E854F855889ED88FE880F89188D2E1527
:1016D0003F054007510738F4220F331F441F551FA1
:1016E00001979C878B876FE170E0A12CB12CC12CF6
:1016F000A0E4DA2E80E090E0DC012E153F054007E3
:10170000510740F08A299B29AC29BD292E193F0990
:10171000400B510BD694C794B794A794220F331F54
:10172000441F551F6150704041F76FE7E62EF12CC2
:10173000012D112DE822F9220A231B2360E4E6166D
:10174000F1040105110561F487FD0AC02115310579
:101750004105510529F0805C9F4FAF4FBF4F807806
:101760008D879E87AF87B88B8E01075F1F4F04C0A0
:10177000870102C00FE111E0C8010E94A50C689624
:10178000EAE00C94800EA8E1B0E0E9ECFBE00C94F8
:10179000680E69837A838B839C832D833E834F837A
:1017A00058878E01075F1F4FCE010196B8010E9436
:1017B000730D81E1E82EF12CEC0EFD1ECE01059695
:1017C000B7010E94730D8985823040F0898982308B
:1017D00028F0C801B7010E94DC0D01C08FEF6896A8
:1017E000E6E00C94840EA8E1B0E0E9EFFBE00C9495
:1017F000680E69837A838B839C832D833E834F831A
:1018000058878E01075F1F4FCE010196B8010E94D5
:10181000730D81E1E82EF12CEC0EFD1ECE01059634
:10182000B7010E94730D8985823040F0898982302A
:1018300028F0C801B7010E94DC0D01C08FEF689647
:10184000E6E00C94840EA8E1B0E0E9E2FCE00C9440
:10185000680E69837A838B839C832D833E834F83B9
:1018600058878E01075F1F4FCE010196B8010E9475
:10187000730D81E1E82EF12CEC0EFD1ECE010596D4
:10188000B7010E94730D8985823040F089898230CA
:1018900028F0C801B7010E94DC0D01C081E0689604
:1018A000E6E00C94840EACE0B0E0E9E5FCE00C94DA
:1018B0006C0E69837A838B839C83CE010196BE0173
:1018C0006B5F7F4F0E94730D8D81823081F182307A
:1018D00070F1843021F48E81882369F10AC02F8150
:1018E000388537FD24C06E812F3131053CF06623E9
:1018F00011F120E030E040E050E821C08EE190E0BE
:10190000821B930B29853A854B855C8504C05695CF
:101910004795379527958A95D2F7662381F050959C
:101920004095309521953F4F4F4F5F4F08C020E0C5
:1019300030E0A90104C02FEF3FEF4FEF5FE7B9019F
:10194000CA012C96E2E00C94880EEF92FF920F935E
:101950001F93CF93DF93FC0124813581468157810A
:1019600061818081823020F44061EFEFF0E0A3C01C
:10197000843009F49BC0823009F492C021153105EE
:101980004105510509F48FC00280F381E02D8FEFEE
:10199000E238F8070CF05AC0C2E8DFEFCE1BDF0BCD
:1019A000CA31D1056CF579018A010C2E04C0169557
:1019B0000795F794E7940A94D2F781E090E0A0E0CD
:1019C000B0E00C2E04C0880F991FAA1FBB1F0A94F9
:1019D000D2F70197A109B10982239323A423B52348
:1019E00021E030E040E050E00097A105B10519F496
:1019F00020E030E0A9012E293F29402B512B03C0C4
:101A000020E030E0A901DA01C9018F779070A07061
:101A1000B07080349105A105B10539F427FF09C0E4
:101A2000205C3F4F4F4F5F4F04C0215C3F4F4F4FF3
:101A30005F4FE1E0F0E0203080E0380780E04807C9
:101A400080E4580728F5E0E0F0E022C0E038F10536
:101A50006CF5E158FF4FDA01C9018F779070A070E3
:101A6000B07080349105A105B10539F427FF09C094
:101A7000205C3F4F4F4F5F4F04C0215C3F4F4F4FA3
:101A80005F4F57FF05C05695479537952795319677
:101A900087E056954795379527958A95D1F70BC0DE
:101AA000E0E0F0E005C0E0E0F0E005C0EFEFF0E0DE
:101AB00020E030E0A9018E2F879588278795942F05
:101AC0009F77679566276795E695E22EA92FA82B45
:101AD000FE2FF62B622F732F8A2F9F2FCDB7DEB7E5
:101AE000E6E00C94840EDC01FB012C9111963C91F4
:101AF000119712968C911297482F4F7750E0982F9C
:101B0000991F9927991F13966C911397862F880F09
:101B1000892B90E0661F6627661F6183009739F561
:101B2000211531054105510511F482E029C082E8F3
:101B30009FEF9383828367E0220F331F441F551F5B
:101B40006A95D1F783E0808309C0220F331F441FB9
:101B5000551F82819381019793838283203080E097
:101B6000380780E0480780E4580778F320C08F3FAB
:101B7000910579F4211531054105510519F484E0E9
:101B80008083089544FF03C081E0808310C01082E9
:101B90000EC08F5790409383828383E0808387E0D9
:101BA000220F331F441F551F8A95D1F75064248399
:101BB0003583468357830895FC01DB019081923081
:101BC00008F449C08C91823008F445C0943051F437
:101BD00061818430B1F511962C91119730E0261B6C
:101BE000310941C0843021F0923041F48230B1F1AA
:101BF00011968C9111978823A1F12DC061818230BB
:101C000001F111968C9111976817D9F422813381D3
:101C100012968D919C9113978217930794F0281731
:101C20003907BCF0248135814681578114968D9106
:101C30009D910D90BC91A02D82179307A407B50725
:101C400018F4662341F00DC0281739074A075B07CF
:101C500028F4662331F021E030E005C020E030E0D8
:101C600002C02FEF3FEFC901089597FB092E072609
:101C70000AD077FD04D00CD006D000201AF470955D
:101C800061957F4F0895F6F7909581959F4F089540
:101C9000AA1BBB1B51E107C0AA1FBB1FA617B70792
:101CA00010F0A61BB70B881F991F5A95A9F78095AE
:101CB0009095BC01CD0108952F923F924F925F9273
:101CC0006F927F928F929F92AF92BF92CF92DF924C
:101CD000EF92FF920F931F93CF93DF93CDB7DEB7B1
:101CE000CA1BDB0B0FB6F894DEBF0FBECDBF099445
:101CF0002A88398848885F846E847D848C849B849C
:101D0000AA84B984C884DF80EE80FD800C811B81A9
:101D1000AA81B981CE0FD11D0FB6F894DEBF0FBED8
:101D2000CDBFED010895FC0188279927E894219102
:101D30002032E9F3293010F02E30C8F32B3241F075
:101D40002D3239F4689404C00E94D90E820F911D7F
:101D5000219120532A30C0F31EF4909581959F4F16
:101D60000895DC0101C06D9341505040E0F70895A3
:101D7000FB019F01E8944230C4F04532B4F44A308C
:101D800029F497FB1EF4909581959F4F642F772738
:101D90000E94480E805D8A330CF0895D8193CB01EF
:101DA0000097A1F716F45DE251931082C9010C94DB
:101DB000E10E7AE0979F902D879F802D910D112441
:101DC0000895DC01FC01672F71917723E1F73297C9
:101DD00004C07C916D9370836291AE17BF07C8F306
:061DE0000895F894FFCF06
:101DE600103734314E383532303936333D2F782D71
:101DF6002B4572726F720057656C6C636F6D0000D5
:081E06000000000000000000D4
:00000001FF
