:100000000C9434000C9449000C9449000C94490061
:100010000C9449000C9449000C9449000C9449003C
:100020000C9449000C9449000C9449000C9449002C
:100030000C9449000C9449000C9449000C9449001C
:100040000C9449000C9449000C9449000C9449000C
:100050000C9449000C9449000C9449000C944900FC
:100060000C9449000C94490011241FBECFEFD8E036
:10007000DEBFCDBF11E0A0E0B1E0E2E6FFE102C0EB
:1000800005900D92AE32B107D9F70E94E4070C94A7
:10009000AF0F0C9400000F931F93DF93CF93CDB756
:1000A000DEB7C955D0400FB6F894DEBF0FBECDBF46
:1000B0009E01285A3F4FF9018083CE01875A9F4FF6
:1000C000FC016083198288E290E02FEFFC0120831D
:1000D0008AE290E02FEFFC01208385E290E0FC01B2
:1000E00010828BE290E09E01285A3F4FF901208157
:1000F000FC01208388E290E02DEFFC01208380E06A
:1001000090E0A0E2B1E48A839B83AC83BD836A81E3
:100110007B818C819D812BEA3AEA4AEA50E40E9475
:100120005E0BDC01CB018E839F83A887B98711E02A
:100130006E817F818885998520E030E040E85FE32B
:100140000E94660D88230CF010E0112319F081E065
:100150008A87A3C011E06E817F818885998520E020
:1001600030E04FE753E40E94060D18160CF010E043
:10017000112309F489C06A817B818C819D8120E0F3
:1001800030E04AE754E40E94580CDC01CB018B8735
:100190009C87AD87BE876B857C858D859E8520E09D
:1001A00030E04AE755E40E945E0BDC01CB018F870B
:1001B000988BA98BBA8B11E06F85788989899A8988
:1001C00020E030E040E85FE30E94660D88230CF0F9
:1001D00010E0112329F081E090E09C8B8B8B46C0CE
:1001E00011E06F85788989899A8920E03FEF4FE790
:1001F00057E40E94060D18160CF010E0112361F16F
:100200006B857C858D859E8520E030E040E251E461
:100210000E945E0BDC01CB01BC01CD010E948A096A
:10022000DC01CB019C8B8B8B12C080E991E09E8B13
:100230008D8B8D899E898C01C8010197F1F78C0106
:100240001E8B0D8B8B899C8901979C8B8B8B8B894B
:100250009C89009751F728C06F85788989899A8988
:100260000E948A09DC01CB019C8B8B8B8B899C893A
:10027000988F8F8B8F89988D8C01F8013197F1F7CA
:100280008F01188F0F8B10C06E817F8188859985B3
:100290000E948A09DC01CB018A878A85898F898D32
:1002A000182F1A95F1F7198F88E290E02FEFFC01D3
:1002B0002083CE01875A9F4FFC01808189838981E9
:1002C0008260898388E290E02FEFFC0120838AE23C
:1002D00090E02FEFFC01208385E290E021E0FC011B
:1002E00020838BE290E02981FC01208388E290E06A
:1002F0002DEFFC01208380E090E0A0E2B1E48A8F42
:100300009B8FAC8FBD8F6A8D7B8D8C8D9D8D2BEAE5
:100310003AEA4AEA50E40E945E0BDC01CB018E8F80
:100320009F8FA8A3B9A311E06E8D7F8D88A199A19D
:1003300020E030E040E85FE30E94660D88230CF087
:1003400010E0112319F081E08AA3A3C011E06E8DA3
:100350007F8D88A199A120E030E04FE753E40E940F
:10036000060D18160CF010E0112309F489C06A8DEF
:100370007B8D8C8D9D8D20E030E04AE754E40E9417
:10038000580CDC01CB018BA39CA3ADA3BEA36BA136
:100390007CA18DA19EA120E030E04AE755E40E94B7
:1003A0005E0BDC01CB018FA398A7A9A7BAA711E028
:1003B0006FA178A589A59AA520E030E040E85FE329
:1003C0000E94660D88230CF010E0112329F081E0D3
:1003D00090E09CA78BA746C011E06FA178A589A5E6
:1003E0009AA520E03FEF4FE757E40E94060D18164C
:1003F0000CF010E0112361F16BA17CA18DA19EA1F5
:1004000020E030E040E251E40E945E0BDC01CB01D1
:10041000BC01CD010E948A09DC01CB019CA78BA7FE
:1004200012C080E991E09EA78DA78DA59EA58C01A5
:10043000C8010197F1F78C011EA70DA78BA59CA5FC
:1004400001979CA78BA78BA59CA5009751F728C067
:100450006FA178A589A59AA50E948A09DC01CB0124
:100460009CA78BA78BA59CA598AB8FA78FA598A9B8
:100470008C01F8013197F1F78F0118AB0FA710C06D
:100480006E8D7F8D88A199A10E948A09DC01CB0124
:100490008AA38AA189AB89A9182F1A95F1F719ABFC
:1004A00088E290E02FEFFC01208380E090E0A0E85C
:1004B000BFE38AAB9BABACABBDAB6AA97BA98CA9F4
:1004C0009DA920E030E04AE755E40E945E0BDC0184
:1004D000CB018EAB9FABA8AFB9AF11E06EA97FA9DE
:1004E00088AD99AD20E030E040E85FE30E94660D02
:1004F00088230CF010E0112329F081E090E09BAFFD
:100500008AAF46C011E06EA97FA988AD99AD20E001
:100510003FEF4FE757E40E94060D18160CF010E06D
:10052000112361F16AA97BA98CA99DA920E030E083
:1005300040E251E40E945E0BDC01CB01BC01CD0125
:100540000E948A09DC01CB019BAF8AAF12C080E90F
:1005500091E09DAF8CAF8CAD9DAD8C01C801019732
:10056000F1F78C011DAF0CAF8AAD9BAD01979BAF2E
:100570008AAF8AAD9BAD009751F717C06EA97FA9CE
:1005800088AD99AD0E948A09DC01CB019BAF8AAF8F
:100590008AAD9BAD9FAF8EAF8EAD9FAD8C01F80144
:1005A0003197F1F78F011FAF0EAF89818D7F89835E
:1005B00088E290E02FEFFC0120838AE290E02FEFA9
:1005C000FC01208385E290E021E0FC0120838BE2A6
:1005D00090E02981FC01208388E290E02DEFFC016E
:1005E00020839E01205C3F4F80E090E0A0E2B1E4D8
:1005F000F90180839183A283B3838E010C5B1F4F2B
:10060000CE01805C9F4FFC0160817181828193816A
:100610002BEA3AEA4AEA50E40E945E0BDC01CB0185
:10062000F80180839183A283B383CE018C5B9F4FBB
:1006300011E0FC01608171818281938120E030E0D2
:1006400040E85FE30E94660D88230CF010E0112360
:1006500039F0CE01885B9F4F21E0FC01208305C16A
:10066000CE018C5B9F4F11E0FC0160817181828122
:10067000938120E030E04FE753E40E94060D181606
:100680000CF010E0112309F4DFC0CE01805C9F4F15
:10069000FC01608171818281938120E030E04AE732
:1006A00054E40E94580CDC01CB019E01275B3F4FB4
:1006B000F90180839183A283B3838E01035B1F4F73
:1006C000CE01875B9F4FFC016081718182819381A4
:1006D00020E030E04AE755E40E945E0BDC01CB01EC
:1006E000F80180839183A283B383CE01835B9F4F04
:1006F00011E0FC01608171818281938120E030E012
:1007000040E85FE30E94660D88230CF010E011239F
:1007100049F0CE018F5A9F4F21E030E0FC01318338
:10072000208374C0CE01835B9F4F11E0FC01608188
:1007300071818281938120E03FEF4FE757E40E946F
:10074000060D18160CF010E0112309F44DC0CE016F
:10075000875B9F4FFC01608171818281938120E0E2
:1007600030E040E251E40E945E0BDC01CB018E01DF
:100770000F5A1F4FBC01CD010E948A09DC01CB0139
:10078000F8019183808327C0CE018D5A9F4F20E9C5
:1007900031E0FC0131832083CE018D5A9F4FFC0153
:1007A000808191818C01C8010197F1F78C01CE0104
:1007B0008D5A9F4FFC0111830083CE018F5A9F4FAA
:1007C0009E012F5A3F4FF901208131812150304045
:1007D000FC0131832083CE018F5A9F4FFC01808121
:1007E0009181009789F658C08E010F5A1F4FCE0194
:1007F000835B9F4FFC0160817181828193810E94A4
:100800008A09DC01CB01F80191838083CE018B5AE8
:100810009F4F9E012F5A3F4FF90120813181FC01EA
:1008200031832083CE018B5A9F4FFC0180819181BF
:100830008C01C8010197F1F78C01CE018B5A9F4FB3
:10084000FC011183008328C08E01085B1F4FCE017D
:100850008C5B9F4FFC0160817181828193810E943A
:100860008A09DC01CB01F8018083CE01895A9F4FB0
:100870009E01285B3F4FF9012081FC012083CE01BE
:10088000895A9F4FFC018081182F1A95F1F7CE01EC
:10089000895A9F4FFC01108388E290E02FEFFC0102
:1008A0002083C75ADF4F0FB6F894DEBF0FBECDBF0F
:1008B000CF91DF911F910F910895DF93CF93CDB723
:1008C000DEB788E360E00E944B0081E060E00E94B8
:1008D0004B008EE060E00E944B00CF91DF910895C5
:1008E000DF93CF930F92CDB7DEB78983898161E023
:1008F0000E944B000F90CF91DF910895DF93CF932B
:1009000000D0CDB7DEB79A8389830BC089819A81E5
:10091000FC0180810E94700489819A8101969A83EA
:10092000898389819A81FC018081882379F70F90DE
:100930000F90CF91DF9108950F931F93DF93CF9383
:10094000CDB7DEB7C555D0400FB6F894DEBF0FBEA9
:10095000CDBFCE018E5B9F4F2FEEFC012083CE01D9
:100960008E5B9F4F2FEDFC012183CE018E5B9F4F4D
:100970002FEBFC012283CE018E5B9F4F2FE7FC0102
:100980002383CE018A5B9F4F26E131E040E1F901EC
:1009900000802F5F3F4FFC010082019641504423AD
:1009A000B1F71982C8C288E290E02FEFFC012083E2
:1009B0008AE290E02FEFFC01208385E290E022E0C4
:1009C000FC0120838BE290E02981222F30E0AE01F0
:1009D0004E5B5F4F240F351FF9012081FC012083FE
:1009E00088E290E02DEFFC01208380E090E0A0E21F
:1009F000B1E48C839D83AE83BF836C817D818E81C6
:100A00009F812BEA3AEA4AEA50E40E945E0BDC013D
:100A1000CB0188879987AA87BB8711E0688579858C
:100A20008A859B8520E030E040E85FE30E94660D08
:100A300088230CF010E0112319F081E08C87A3C00B
:100A400011E0688579858A859B8520E030E04FE755
:100A500053E40E94060D18160CF010E0112309F45F
:100A600089C06C817D818E819F8120E030E04AE7E2
:100A700054E40E94580CDC01CB018D879E87AF8720
:100A8000B88B6D857E858F85988920E030E04AE7B8
:100A900055E40E945E0BDC01CB01898B9A8BAB8BFA
:100AA000BC8B11E069897A898B899C8920E030E0D0
:100AB00040E85FE30E94660D88230CF010E01123EC
:100AC00029F081E090E09E8B8D8B46C011E0698912
:100AD0007A898B899C8920E03FEF4FE757E40E9499
:100AE000060D18160CF010E0112361F16D857E855E
:100AF0008F85988920E030E040E251E40E945E0B4F
:100B0000DC01CB01BC01CD010E948A09DC01CB01D3
:100B10009E8B8D8B12C080E991E0988F8F8B8F898F
:100B2000988D8C01C8010197F1F78C01188F0F8BFC
:100B30008D899E8901979E8B8D8B8D899E890097CB
:100B400051F728C069897A898B899C890E948A0912
:100B5000DC01CB019E8B8D8B8D899E899A8F898F2D
:100B6000898D9A8D8C01F8013197F1F78F011A8FD9
:100B7000098F10C0688579858A859B850E948A09BE
:100B8000DC01CB018C878C858B8F8B8D182F1A9570
:100B9000F1F71B8F88E290E02FEFFC01208380E0CB
:100BA00090E0A0E8BFE38C8F9D8FAE8FBF8F6C8DE0
:100BB0007D8D8E8D9F8D20E030E04AE755E40E94C8
:100BC0005E0BDC01CB0188A399A3AAA3BBA311E010
:100BD00068A179A18AA19BA120E030E040E85FE311
:100BE0000E94660D88230CF010E0112329F081E0AB
:100BF00090E09DA38CA346C011E068A179A18AA1D1
:100C00009BA120E03FEF4FE757E40E94060D181626
:100C10000CF010E0112361F16C8D7D8D8E8D9F8D18
:100C200020E030E040E251E40E945E0BDC01CB01A9
:100C3000BC01CD010E948A09DC01CB019DA38CA3DC
:100C400012C080E991E09FA38EA38EA19FA18C0189
:100C5000C8010197F1F78C011FA30EA38CA19DA1E0
:100C600001979DA38CA38CA19DA1009751F717C05C
:100C700068A179A18AA19BA10E948A09DC01CB010C
:100C80009DA38CA38CA19DA199A788A788A599A5B0
:100C90008C01F8013197F1F78F0119A708A788E2B5
:100CA00090E02FEFFC0120838AE290E0FC011082AB
:100CB0008BE290E02FEFFC01208385E290E022E0C0
:100CC000FC01208389E290E0FC0180818B8388E233
:100CD00090E02EEFFC01208380E090E0A0E2B1E400
:100CE0008AA79BA7ACA7BDA76AA57BA58CA59DA538
:100CF0002BEA3AEA4AEA50E40E945E0BDC01CB019F
:100D00008EA79FA7A8ABB9AB11E06EA57FA588A958
:100D100099A920E030E040E85FE30E94660D882357
:100D20000CF010E0112319F081E08AABACC011E0A7
:100D30006EA57FA588A999A920E030E04FE753E48C
:100D40000E94060D18160CF010E0112309F492C051
:100D50006AA57BA58CA59DA520E030E04AE754E478
:100D60000E94580CDC01CB018BAB9CABADABBEAB96
:100D70006BA97CA98DA99EA920E030E04AE755E443
:100D80000E945E0BDC01CB018FAB98AFA9AFBAAF6D
:100D900011E06FA978AD89AD9AAD20E030E040E870
:100DA0005FE30E94660D88230CF010E0112329F008
:100DB00081E090E09CAF8BAF46C011E06FA978ADA9
:100DC00089AD9AAD20E03FEF4FE757E40E94060D52
:100DD00018160CF010E0112361F16BA97CA98DA904
:100DE0009EA920E030E040E251E40E945E0BDC016D
:100DF000CB01BC01CD010E948A09DC01CB019CAF73
:100E00008BAF12C080E991E09EAF8DAF8DAD9EADEE
:100E10008C01C8010197F1F78C011EAF0DAF8BADAE
:100E20009CAD01979CAF8BAF8BAD9CAD009751F7FC
:100E30003DC06FA978AD89AD9AAD0E948A09DC01E9
:100E4000CB019CAF8BAF2BAD3CADCE01CF96FC015F
:100E500031832083CE01CF96FC01808191818C016A
:100E6000C8010197F1F78C01CE01CF96FC011183E7
:100E700000831CC06EA57FA588A999A90E948A0934
:100E8000DC01CB018AABCE018F5B9F4F2AA9FC010D
:100E90002083CE018F5B9F4FFC018081182F1A9514
:100EA000F1F7CE018F5B9F4FFC01108388E290E049
:100EB0002FEFFC0120831A8238C08981482F50E02F
:100EC0008A81882F90E09E012A5B3F4F440F551F77
:100ED000440F551F840F951F820F931FFC019081B3
:100EE0008B819817F9F48981882F90E09C01245018
:100EF00030408A81882F90E0220F331F220F331F4A
:100F0000820F931F80509F4FFC018081CB5ADF4F8F
:100F10000FB6F894DEBF0FBECDBFCF91DF911F910A
:100F20000F9108958A818F5F8A838A81843028F2A5
:100F300089818F5F89838981843008F434CD31CDF4
:100F4000DF93CF9300D000D000D0CDB7DEB79A8327
:100F500089837C836B835E834D8326960FB6F894DA
:100F6000DEBF0FBECDBFCF91DF910895DF93CF934A
:100F700000D000D00F92CDB7DEB79A8389837C83EF
:100F80006B834D830F900F900F900F900F90CF9128
:100F9000DF910895DF93CF93CDB7DEB7CF91DF9187
:100FA0000895DF93CF9300D0CDB7DEB79A838983BE
:100FB0000F900F90CF91DF910895DF93CF93CDB72E
:100FC000DEB7CF91DF9108950F931F93DF93CF93F7
:100FD000CDB7DEB7A7970FB6F894DEBF0FBECDBF73
:100FE00084E290E02FEFFC01208387E290E02FEF76
:100FF000FC01208388E290E02FEFFC0120838AE24D
:1010000090E02FEFFC01208385E290E023E0FC01DB
:1010100020838BE290E021E8FC01208388E290E0CD
:101020002DEFFC01208380E090E0A0E2B1E48A8310
:101030009B83AC83BD836A817B818C819D812BEAFC
:101040003AEA4AEA50E40E945E0BDC01CB018E834F
:101050009F83A887B98711E06E817F8188859985F4
:1010600020E030E040E85FE30E94660D88230CF04A
:1010700010E0112319F081E08A87A3C011E06E818E
:101080007F818885998520E030E04FE753E40E9416
:10109000060D18160CF010E0112309F489C06A81BE
:1010A0007B818C819D8120E030E04AE754E40E94FE
:1010B000580CDC01CB018B879C87AD87BE876B8585
:1010C0007C858D859E8520E030E04AE755E40E94CE
:1010D0005E0BDC01CB018F87988BA98BBA8B11E05B
:1010E0006F85788989899A8920E030E040E85FE35C
:1010F0000E94660D88230CF010E0112329F081E096
:1011000090E09C8B8B8B46C011E06F857889898934
:101110009A8920E03FEF4FE757E40E94060D18162A
:101120000CF010E0112361F16B857C858D859E8527
:1011300020E030E040E251E40E945E0BDC01CB0194
:10114000BC01CD010E948A09DC01CB019C8B8B8BF9
:1011500012C080E991E09E8B8D8B8D899E898C01D8
:10116000C8010197F1F78C011E8B0D8B8B899C892F
:1011700001979C8B8B8B8B899C89009751F728C09A
:101180006F85788989899A890E948A09DC01CB0157
:101190009C8B8B8B8B899C89988F8F8B8F89988D5B
:1011A0008C01F8013197F1F78F01188F0F8B10C068
:1011B0006E817F81888599850E948A09DC01CB0137
:1011C0008A878A85898F898D182F1A95F1F7198F4B
:1011D00088E290E02FEFFC0120830E945D0480E113
:1011E00091E00E947E0480E090E0AAE7B4E48A8F58
:1011F0009B8FAC8FBD8F6A8D7B8D8C8D9D8D20E0FC
:1012000030E04AE755E40E945E0BDC01CB018E8F93
:101210009F8FA8A3B9A311E06E8D7F8D88A199A19E
:1012200020E030E040E85FE30E94660D88230CF088
:1012300010E0112329F081E090E09BA38AA346C02F
:1012400011E06E8D7F8D88A199A120E03FEF4FE7DF
:1012500057E40E94060D18160CF010E0112361F1FE
:101260006A8D7B8D8C8D9D8D20E030E040E251E4D5
:101270000E945E0BDC01CB01BC01CD010E948A09FA
:10128000DC01CB019BA38AA312C080E991E09DA35E
:101290008CA38CA19DA18C01C8010197F1F78C0151
:1012A0001DA30CA38AA19BA101979BA38AA38AA13A
:1012B0009BA1009751F717C06E8D7F8D88A199A1D2
:1012C0000E948A09DC01CB019BA38AA38AA19BA16E
:1012D0009FA38EA38EA19FA18C01F8013197F1F7F6
:1012E0008F011FA30EA381E060E00E944B000E94CB
:1012F0009C04898389810E94700480E090E0A79615
:101300000FB6F894DEBF0FBECDBFCF91DF911F9116
:101310000F910895EF92FF920F931F937B018C0121
:1013200020E030E040E05FE40E94360D87FD11C010
:10133000C801B70120E030E040E05FE40E942D0BDF
:101340000E94960D9B01AC01205030404040504817
:1013500006C0C801B7010E94960D9B01AC01B901FE
:10136000CA011F910F91FF90EF900895A0E0B0E0A7
:10137000ECEBF9E00C947C0FFC01EA0180818230F7
:1013800008F438C1DB019C91923008F430C18430FC
:1013900059F4943009F02EC1918111968C911197D6
:1013A000981709F021C126C1943009F420C1923068
:1013B000B1F4823009F01EC1CA01AF0128E0DA01A0
:1013C0000D90AD01DC010D92CD012150C1F7DB0183
:1013D00011968C9111979181892389830AC182305A
:1013E00009F405C1C280D380DB0112966D907C9018
:1013F000139724813581468157811496ED90FD9095
:101400000D911C911797C601861997095C0197FFEA
:1014100004C0AA24BB24A81AB90AB0E2AB16B104CE
:101420000CF061C0181619066CF5370148010A2C3A
:1014300004C096948794779467940A94D2F781E0D5
:1014400090E0A0E0B0E00A2C04C0880F991FAA1F0A
:10145000BB1F0A94D2F70197A109B1098E219F21E0
:10146000A023B123EE24FF248701E3940097A10574
:10147000B10519F4EE24FF248701E628F72808298E
:1014800019293CC00097D1F1CA0CDB1C39014A0173
:101490000A2C04C096948794779467940A94D2F7A0
:1014A00081E090E0A0E0B0E00A2C04C0880F991F12
:1014B000AA1FBB1F0A94D2F70197A109B109822381
:1014C0009323A423B52321E030E040E050E00097CF
:1014D000A105B10519F420E030E0A901262937293A
:1014E000482959290BC06C147D0424F4EE24FF24F0
:1014F000870104C0630120E030E0A9018181FB0184
:101500009181891709F445C0882349F0D801C701A2
:10151000821B930BA40BB50B9C01AD0104C02E19CB
:101520003F09400B510B57FD04C01982DB82CA8270
:101530000BC081E08983DB82CA825095409530954B
:1015400021953F4F4F4F5F4F2C833D834E835F83E9
:101550000DC0880F991FAA1FBB1F8C839D83AE836C
:10156000BF838A819B8101979B838A838C819D8124
:10157000AE81BF819C01AD012150304040405040C0
:101580002F3FEFEF3E07EFEF4E07EFE35E0708F365
:101590000BC08983DB82CA822E0D3F1D401F511F65
:1015A0002C833D834E835F8383E088832C813D8140
:1015B0004E815F8157FF1DC0DA01C90181709070B3
:1015C000A070B0705695479537952795822B932B31
:1015D000A42BB52B8C839D83AE83BF838A819B8193
:1015E00001969B838A8305C0E6E2F1E003C0FB011C
:1015F00001C0FE01CF01CDB7DEB7EEE00C94980F2D
:10160000A0E2B0E0E6E0FBE00C94840F69837A830B
:101610008B839C832D833E834F83588789E0E82EFC
:10162000F12CEC0EFD1ECE010196B7010E94B60E04
:101630008E010F5E1F4FCE010596B8010E94B60EB7
:10164000C701B801AE01475E5F4F0E94B6090E9414
:10165000E80DA096E6E00C94A00FA0E2B0E0E3E372
:10166000FBE00C94840F69837A838B839C832D83A6
:101670003E834F8358878E01075F1F4FCE0101962F
:10168000B8010E94B60E91E1E92EF12CEC0EFD1E80
:10169000CE010596B7010E94B60E8A8991E089278E
:1016A0008A8BC801B701AE01475E5F4F0E94B60941
:1016B0000E94E80DA096E6E00C94A00FA0E2B0E036
:1016C000E4E6FBE00C94780F69837A838B839C8338
:1016D0002D833E834F835887CE010196BE01675FFD
:1016E0007F4F0E94B60ECE010596BE016F5E7F4F02
:1016F0000E94B60E9985923078F089898230C0F0C8
:10170000943019F4823041F4CBC0843019F4923013
:1017100079F4C6C0923051F481E02A859A8929175C
:1017200009F480E08A87CE010996BCC0823051F46A
:1017300081E02A859A89291709F480E08A8BCE01F5
:101740004196B0C06D847E848F849888ED88FE8831
:101750000F89188DE0E2F0E080E090E0DC01AA243F
:10176000BB24650120E030E0A901B3016170707015
:1017700061157105D1F02E0D3F1D401F511F150140
:101780002601280E391E4A1E5B1E81E090E0A0E073
:10179000B0E02E153F054007510718F080E090E0BB
:1017A000DC01820D931DA41DB51DAA0CBB1CCC1C15
:1017B000DD1C17FF09C061E0262E312C412C512C75
:1017C000A228B328C428D528319749F0EE0CFF1C75
:1017D000001F111F9694879477946794C6CF6B89E6
:1017E0007C89EB85FC856E0F7F1F6E5F7F4F7C8F42
:1017F0006B8F61E0EA857A89E71709F460E06A8F08
:101800006B8D7C8D10C0FC01E170F070309729F079
:1018100056954795379527955068B695A79597950E
:1018200087956F5F7F4FB7FDEECF0CC0880F991F74
:10183000AA1FBB1F57FD8160220F331F441F551F76
:10184000615070408030E0E09E07E0E0AE07E0E4E9
:10185000BE0760F36B8F7C8F6FE7E62EF12C012DB6
:10186000112DE822F9220A231B2360E4E616F10475
:101870000105110561F487FD0AC0211531054105F7
:10188000510529F0805C9F4FAF4FBF4F80788D8FFF
:101890009E8FAF8FB8A383E0898FCE01499602C097
:1018A00086E291E00E94E80DA096E2E10C94940F8C
:1018B000A8E1B0E0EEE5FCE00C94800F69837A8348
:1018C0008B839C832D833E834F8358878E01075FD4
:1018D0001F4FCE010196B8010E94B60E81E1E82E9D
:1018E000F12CEC0EFD1ECE010596B7010E94B60E3E
:1018F0009985923008F483C08989823008F47BC0CE
:101900002A853A8923272A87943011F0923021F4CE
:10191000981709F06CC071C0843039F41D861E869A
:101920001F86188A1C861B866AC0823019F484E0E0
:10193000898765C08B859C852B893C89821B930B8D
:101940009C878B872D853E854F855889ED88FE883D
:101950000F89188D2E153F054007510738F4220FC7
:10196000331F441F551F01979C878B876FE170E0E1
:10197000A12CB12CC12CA0E4DA2E80E090E0DC0197
:101980002E153F054007510740F08A299B29AC29B5
:10199000BD292E193F09400B510BD694C794B7941B
:1019A000A794220F331F441F551F6150704041F709
:1019B0006FE7E62EF12C012D112DE822F9220A23E2
:1019C0001B2360E4E616F1040105110561F487FDAF
:1019D0000AC0211531054105510529F0805C9F4F52
:1019E000AF4FBF4F80788D879E87AF87B88B8E01B2
:1019F000075F1F4F04C0870102C006E211E0C80163
:101A00000E94E80D6896EAE00C949C0FA8E1B0E013
:101A1000ECE0FDE00C94840F69837A838B839C83D4
:101A20002D833E834F8358878E01075F1F4FCE0162
:101A30000196B8010E94B60E81E1E82EF12CEC0E61
:101A4000FD1ECE010596B7010E94B60E8985823033
:101A500040F08989823028F0C801B7010E941F0F29
:101A600001C08FEF6896E6E00C94A00FA8E1B0E00B
:101A7000ECE3FDE00C94840F69837A838B839C8371
:101A80002D833E834F8358878E01075F1F4FCE0102
:101A90000196B8010E94B60E81E1E82EF12CEC0E01
:101AA000FD1ECE010596B7010E94B60E89858230D3
:101AB00040F08989823028F0C801B7010E941F0FC9
:101AC00001C08FEF6896E6E00C94A00FA8E1B0E0AB
:101AD000ECE6FDE00C94840F69837A838B839C830E
:101AE0002D833E834F8358878E01075F1F4FCE01A2
:101AF0000196B8010E94B60E81E1E82EF12CEC0EA1
:101B0000FD1ECE010596B7010E94B60E8985823072
:101B100040F08989823028F0C801B7010E941F0F68
:101B200001C081E06896E6E00C94A00FACE0B0E064
:101B3000ECE9FDE00C94880F69837A838B839C83A6
:101B4000CE010196BE016B5F7F4F0E94B60E8D8164
:101B5000823081F1823070F1843021F48E818823CB
:101B600069F10AC02F81388537FD24C06E812F317D
:101B700031053CF0662311F120E030E040E050E810
:101B800021C08EE190E0821B930B29853A854B851D
:101B90005C8504C056954795379527958A95D2F769
:101BA000662381F050954095309521953F4F4F4FDA
:101BB0005F4F08C020E030E0A90104C02FEF3FEFE5
:101BC0004FEF5FE7B901CA012C96E2E00C94A40F35
:101BD000EF92FF920F931F93CF93DF93FC01248129
:101BE00035814681578161818081823020F4406156
:101BF000EFEFF0E0A3C0843009F49BC0823009F419
:101C000092C0211531054105510509F48FC00280AC
:101C1000F381E02D8FEFE238F8070CF05AC0C2E8EC
:101C2000DFEFCE1BDF0BCA31D1056CF579018A01DC
:101C30000C2E04C016950795F794E7940A94D2F7F2
:101C400081E090E0A0E0B0E00C2E04C0880F991F66
:101C5000AA1FBB1F0A94D2F70197A109B1098223D9
:101C60009323A423B52321E030E040E050E0009727
:101C7000A105B10519F420E030E0A9012E293F2982
:101C8000402B512B03C020E030E0A901DA01C9014B
:101C90008F779070A070B07080349105A105B10568
:101CA00039F427FF09C0205C3F4F4F4F5F4F04C0FE
:101CB000215C3F4F4F4F5F4FE1E0F0E0203080E08C
:101CC000380780E0480780E4580728F5E0E0F0E0B6
:101CD00022C0E038F1056CF5E158FF4FDA01C90187
:101CE0008F779070A070B07080349105A105B10518
:101CF00039F427FF09C0205C3F4F4F4F5F4F04C0AE
:101D0000215C3F4F4F4F5F4F57FF05C0569547959A
:101D100037952795319687E05695479537952795BE
:101D20008A95D1F70BC0E0E0F0E005C0E0E0F0E01C
:101D300005C0EFEFF0E020E030E0A9018E2F87959D
:101D400088278795942F9F77679566276795E695EF
:101D5000E22EA92FA82BFE2FF62B622F732F8A2F8E
:101D60009F2FCDB7DEB7E6E00C94A00FDC01FB019E
:101D70002C9111963C91119712968C911297482FA5
:101D80004F7750E0982F991F9927991F13966C91C0
:101D90001397862F880F892B90E0661F6627661F92
:101DA0006183009739F5211531054105510511F47D
:101DB00082E029C082E89FEF9383828367E0220F4D
:101DC000331F441F551F6A95D1F783E0808309C0F4
:101DD000220F331F441F551F8281938101979383E4
:101DE0008283203080E0380780E0480780E458078D
:101DF00078F320C08F3F910579F421153105410515
:101E0000510519F484E08083089544FF03C081E004
:101E1000808310C010820EC08F57904093838283BE
:101E200083E0808387E0220F331F441F551F8A956C
:101E3000D1F7506424833583468357830895FC018A
:101E4000DB019081923008F449C08C91823008F413
:101E500045C0943051F461818430B1F511962C91D4
:101E6000119730E0261B310941C0843021F09230B7
:101E700041F48230B1F111968C9111978823A1F130
:101E80002DC06181823001F111968C9111976817F4
:101E9000D9F42281338112968D919C9113978217E8
:101EA000930794F028173907BCF0248135814681C7
:101EB000578114968D919D910D90BC91A02D821704
:101EC0009307A407B50718F4662341F00DC028173F
:101ED00039074A075B0728F4662331F021E030E038
:101EE00005C020E030E002C02FEF3FEFC9010895A8
:101EF0002F923F924F925F926F927F928F929F921A
:101F0000AF92BF92CF92DF92EF92FF920F931F9307
:101F1000CF93DF93CDB7DEB7CA1BDB0B0FB6F894B8
:101F2000DEBF0FBECDBF09942A88398848885F84F8
:101F30006E847D848C849B84AA84B984C884DF8069
:101F4000EE80FD800C811B81AA81B981CE0FD11D4D
:101F50000FB6F894DEBF0FBECDBFED010895F89423
:021F6000FFCFB1
:101F62003734314E383532303936333D2F782D2BD8
:101F720068656C6C6F00EEEDEBE7DEDDDBD7BEBDB6
:0E1F8200BBB77E7D7B770000000000000000F2
:00000001FF
