:100000000C9434000C9449000C9449000C94490061
:100010000C9449000C9449000C9449000C9449003C
:100020000C9449000C9449000C9449000C9449002C
:100030000C9449000C9449000C9449000C9449001C
:100040000C9449000C9449000C9449000C9449000C
:100050000C9449000C9449000C9449000C944900FC
:100060000C9449000C94490011241FBECFEFD8E036
:10007000DEBFCDBF11E0A0E0B1E0E0E2F3E102C0FD
:1000800005900D92AE31B107D9F70E9450030C9440
:100090008E090C9400000F931F93DF93CF93CDB77D
:1000A000DEB7EB970FB6F894DEBF0FBECDBF8AAFB9
:1000B0006BAF198288E290E02FEFFC0120838AE287
:1000C00090E02FEFFC01208385E290E0FC0110829C
:1000D0008BE290E02AADFC01208388E290E02DEFD6
:1000E000FC01208380E090E0A0E8BFE38A839B834B
:1000F000AC83BD836A817B818C819D8120E030E06F
:100100004AE755E40E94EB05DC01CB018E839F8317
:10011000A887B98711E06E817F818885998520E065
:1001200030E040E85FE30E94450788230CF010E0D0
:10013000112329F081E090E09B878A8746C011E077
:100140006E817F818885998520E03FEF4FE757E4F6
:100150000E94E50618160CF010E0112361F16A8187
:100160007B818C819D8120E030E040E251E40E945F
:10017000EB05DC01CB01BC01CD010E941704DC01C1
:10018000CB019B878A8712C080E991E09D878C878D
:100190008C859D858C01C8010197F1F78C011D8725
:1001A0000C878A859B8501979B878A878A859B8593
:1001B000009751F717C06E817F81888599850E94CD
:1001C0001704DC01CB019B878A878A859B859F87E3
:1001D0008E878E859F858C01F8013197F1F78F010D
:1001E0001F870E8788E290E02FEFFC0120838BAD04
:1001F000898389818260898388E290E02FEFFC0106
:1002000020838AE290E02FEFFC01208385E290E0DA
:1002100021E0FC0120838BE290E02981FC01208316
:1002200088E290E02DEFFC01208380E090E0A0E8E0
:10023000BFE3888B998BAA8BBB8B688979898A8964
:100240009B8920E030E04AE755E40E94EB05DC01A1
:10025000CB018C8B9D8BAE8BBF8B11E06C897D8924
:100260008E899F8920E030E040E85FE30E944507E7
:1002700088230CF010E0112329F081E090E0998FA1
:10028000888F46C011E06C897D898E899F8920E026
:100290003FEF4FE757E40E94E50618160CF010E018
:1002A000112361F1688979898A899B8920E030E08E
:1002B00040E251E40E94EB05DC01CB01BC01CD0121
:1002C0000E941704DC01CB01998F888F12C080E94E
:1002D00091E09B8F8A8F8A8D9B8D8C01C80101973D
:1002E000F1F78C011B8F0A8F888D998D0197998F5B
:1002F000888F888D998D009751F717C06C897D89FB
:100300008E899F890E941704DC01CB01998F888F09
:10031000888D998D9D8F8C8F8C8D9D8D8C01F80192
:100320003197F1F78F011D8F0C8F88E290E02FEF4E
:10033000FC01208380E090E0A0E8BFE38E8F9F8FD8
:10034000A8A3B9A36E8D7F8D88A199A120E030E08C
:100350004AE755E40E94EB05DC01CB018AA39BA38D
:10036000ACA3BDA311E06AA17BA18CA19DA120E05B
:1003700030E040E85FE30E94450788230CF010E07E
:10038000112329F081E090E09FA38EA346C011E0E5
:100390006AA17BA18CA19DA120E03FEF4FE757E42C
:1003A0000E94E50618160CF010E0112361F16E8D25
:1003B0007F8D88A199A120E030E040E251E40E94C5
:1003C000EB05DC01CB01BC01CD010E941704DC016F
:1003D000CB019FA38EA312C080E991E099A788A7C3
:1003E00088A599A58C01C8010197F1F78C0119A77F
:1003F00008A78EA19FA101979FA38EA38EA19FA165
:10040000009751F717C06AA17BA18CA19DA10E9402
:100410001704DC01CB019FA38EA38EA19FA19BA7F4
:100420008AA78AA59BA58C01F8013197F1F78F0166
:100430001BA70AA789818D7F898388E290E02FEF2F
:10044000FC0120838AE290E02FEFFC01208385E20B
:1004500090E021E0FC0120838BE290E02981FC0107
:10046000208388E290E02DEFFC01208380E090E083
:10047000A0E8BFE38CA79DA7AEA7BFA76CA57DA5ED
:100480008EA59FA520E030E04AE755E40E94EB05E9
:10049000DC01CB0188AB99ABAAABBBAB11E068A97F
:1004A00079A98AA99BA920E030E040E85FE30E9497
:1004B000450788230CF010E0112329F081E090E03B
:1004C0009DAB8CAB46C011E068A979A98AA99BA90C
:1004D00020E03FEF4FE757E40E94E50618160CF0C6
:1004E00010E0112361F16CA57DA58EA59FA520E0EC
:1004F00030E040E251E40E94EB05DC01CB01BC019D
:10050000CD010E941704DC01CB019DAB8CAB12C066
:1005100080E991E09FAB8EAB8EA99FA98C01C801A9
:100520000197F1F78C011FAB0EAB8CA99DA9019728
:100530009DAB8CAB8CA99DA9009751F717C068A9FA
:1005400079A98AA99BA90E941704DC01CB019DAB64
:100550008CAB8CA99DA999AF88AF88AD99AD8C0162
:10056000F8013197F1F78F0119AF08AF88E290E0F9
:100570002FEFFC012083EB960FB6F894DEBF0FBE81
:10058000CDBFCF91DF911F910F910895DF93CF934E
:10059000CDB7DEB788E360E00E944B0081E060E009
:1005A0000E944B008EE060E00E944B00CF91DF91F3
:1005B0000895DF93CF930F92CDB7DEB789838981FA
:1005C00061E00E944B000F90CF91DF910895DF937F
:1005D000CF9300D0CDB7DEB79A8389830BC08981D2
:1005E0009A81FC0180810E94D90289819A810196B9
:1005F0009A83898389819A81FC018081882379F794
:100600000F900F90CF91DF910895DF93CF93CDB7E7
:10061000DEB7CF91DF910895DF93CF9300D000D064
:1006200000D0CDB7DEB79A8389837C836B835E83EA
:100630004D8326960FB6F894DEBF0FBECDBFCF9187
:10064000DF910895DF93CF9300D000D00F92CDB704
:10065000DEB79A8389837C836B834D830F900F90E1
:100660000F900F900F90CF91DF910895DF93CF936C
:10067000CDB7DEB7CF91DF910895DF93CF9300D050
:10068000CDB7DEB79A8389830F900F90CF91DF911A
:100690000895DF93CF93CDB7DEB7CF91DF91089563
:1006A0000F931F93DF93CF93CDB7DEB72E970FB67F
:1006B000F894DEBF0FBECDBF84E290E02FEFFC01C7
:1006C000208387E290E02FEFFC01208388E290E016
:1006D0002FEFFC0120838AE290E02FEFFC012083C2
:1006E00085E290E023E0FC0120838BE290E021E8AA
:1006F000FC01208388E290E02DEFFC01208380E064
:1007000090E0A0E8BFE389839A83AB83BC836981CF
:100710007A818B819C8120E030E04AE755E40E9499
:10072000EB05DC01CB018D839E83AF83B88711E09D
:100730006D817E818F81988520E030E040E85FE325
:100740000E94450788230CF010E0112329F081E076
:1007500090E09A87898746C011E06D817E818F8104
:10076000988520E03FEF4FE757E40E94E506181612
:100770000CF010E0112361F169817A818B819C81F9
:1007800020E030E040E251E40E94EB05DC01CB01C7
:10079000BC01CD010E941704DC01CB019A87898737
:1007A00012C080E991E09C878B878B859C858C01AA
:1007B000C8010197F1F78C011C870B8789859A8501
:1007C00001979A87898789859A85009751F717C07D
:1007D0006D817E818F8198850E941704DC01CB0199
:1007E0009A87898789859A859E878D878D859E853D
:1007F0008C01F8013197F1F78F011E870D8788E290
:1008000090E02FEFFC0120830E94C60280E191E07E
:100810000E94E70280E090E02E960FB6F894DEBFCB
:100820000FBECDBFCF91DF911F910F910895EF9231
:10083000FF920F931F937B018C0120E030E040E09A
:100840005FE40E94150787FD11C0C801B70120E0D1
:1008500030E040E05FE40E94BA050E9475079B010A
:10086000AC01205030404040504806C0C801B7019C
:100870000E9475079B01AC01B901CA011F910F913C
:10088000FF90EF900895A0E0B0E0E9E4F4E00C946C
:100890005B09FC01EA018081823008F438C1DB0188
:1008A0009C91923008F430C1843059F4943009F0AE
:1008B0002EC1918111968C911197981709F021C141
:1008C00026C1943009F420C19230B1F4823009F08D
:1008D0001EC1CA01AF0128E0DA010D90AD01DC01B3
:1008E0000D92CD012150C1F7DB0111968C9111972A
:1008F0009181892389830AC1823009F405C1C280AC
:10090000D380DB0112966D907C9013972481358102
:10091000468157811496ED90FD900D911C9117978B
:10092000C601861997095C0197FF04C0AA24BB245D
:10093000A81AB90AB0E2AB16B1040CF061C01816DF
:1009400019066CF5370148010A2C04C09694879467
:10095000779467940A94D2F781E090E0A0E0B0E049
:100960000A2C04C0880F991FAA1FBB1F0A94D2F734
:100970000197A109B1098E219F21A023B123EE2463
:10098000FF248701E3940097A105B10519F4EE2433
:10099000FF248701E628F728082919293CC0009779
:1009A000D1F1CA0CDB1C39014A010A2C04C096940F
:1009B0008794779467940A94D2F781E090E0A0E05E
:1009C000B0E00A2C04C0880F991FAA1FBB1F0A940D
:1009D000D2F70197A109B10982239323A423B52358
:1009E00021E030E040E050E00097A105B10519F4A6
:1009F00020E030E0A90126293729482959290BC0D0
:100A00006C147D0424F4EE24FF24870104C06301E8
:100A100020E030E0A9018181FB019181891709F46F
:100A200045C0882349F0D801C701821B930BA40B52
:100A3000B50B9C01AD0104C02E193F09400B510BB1
:100A400057FD04C01982DB82CA820BC081E0898312
:100A5000DB82CA8250954095309521953F4F4F4F8C
:100A60005F4F2C833D834E835F830DC0880F991F9A
:100A7000AA1FBB1F8C839D83AE83BF838A819B810A
:100A800001979B838A838C819D81AE81BF819C016C
:100A9000AD0121503040404050402F3FEFEF3E0726
:100AA000EFEF4E07EFE35E0708F30BC08983DB82AD
:100AB000CA822E0D3F1D401F511F2C833D834E8344
:100AC0005F8383E088832C813D814E815F8157FF66
:100AD0001DC0DA01C90181709070A070B070569588
:100AE000479537952795822B932BA42BB52B8C8379
:100AF0009D83AE83BF838A819B8101969B838A837A
:100B000005C0E6E1F1E003C0FB0101C0FE01CF0139
:100B1000CDB7DEB7EEE00C947709A0E2B0E0E3E9F0
:100B2000F5E00C94630969837A838B839C832D831E
:100B30003E834F83588789E0E82EF12CEC0EFD1E92
:100B4000CE010196B7010E9495088E010F5E1F4FDE
:100B5000CE010596B8010E949508C701B801AE0103
:100B6000475E5F4F0E9443040E94C707A096E6E0DD
:100B70000C947F09A0E2B0E0E0ECF5E00C9463098E
:100B800069837A838B839C832D833E834F8358872D
:100B90008E01075F1F4FCE010196B8010E94950894
:100BA00091E1E92EF12CEC0EFD1ECE010596B70168
:100BB0000E9495088A8991E089278A8BC801B7012C
:100BC000AE01475E5F4F0E9443040E94C707A09694
:100BD000E6E00C947F09A0E2B0E0E1EFF5E00C94D0
:100BE000570969837A838B839C832D833E834F834C
:100BF0005887CE010196BE01675F7F4F0E9495081E
:100C0000CE010596BE016F5E7F4F0E9495089985C3
:100C1000923078F089898230C0F0943019F48230B3
:100C200041F4CBC0843019F4923079F4C6C09230CC
:100C300051F481E02A859A89291709F480E08A878E
:100C4000CE010996BCC0823051F481E02A859A8990
:100C5000291709F480E08A8BCE014196B0C06D84DB
:100C60007E848F849888ED88FE880F89188DE0E255
:100C7000F0E080E090E0DC01AA24BB24650120E0E4
:100C800030E0A901B3016170707061157105D1F098
:100C90002E0D3F1D401F511F15012601280E391E24
:100CA0004A1E5B1E81E090E0A0E0B0E02E153F05FB
:100CB0004007510718F080E090E0DC01820D931DA1
:100CC000A41DB51DAA0CBB1CCC1CDD1C17FF09C044
:100CD00061E0262E312C412C512CA228B328C428A7
:100CE000D528319749F0EE0CFF1C001F111F969478
:100CF000879477946794C6CF6B897C89EB85FC8554
:100D00006E0F7F1F6E5F7F4F7C8F6B8F61E0EA8578
:100D10007A89E71709F460E06A8F6B8D7C8D10C0CB
:100D2000FC01E170F070309729F0569547953795A2
:100D300027955068B695A795979587956F5F7F4FD4
:100D4000B7FDEECF0CC0880F991FAA1FBB1F57FD20
:100D50008160220F331F441F551F61507040803047
:100D6000E0E09E07E0E0AE07E0E4BE0760F36B8FD3
:100D70007C8F6FE7E62EF12C012D112DE822F92250
:100D80000A231B2360E4E616F1040105110561F452
:100D900087FD0AC0211531054105510529F0805C08
:100DA0009F4FAF4FBF4F80788D8F9E8FAF8FB8A36F
:100DB00083E0898FCE01499602C086E191E00E94CE
:100DC000C707A096E2E10C947309A8E1B0E0EBEE4E
:100DD000F6E00C94630969837A838B839C832D836B
:100DE0003E834F8358878E01075F1F4FCE010196C8
:100DF000B8010E94950881E1E82EF12CEC0EFD1E51
:100E0000CE010596B7010E9495088985823040F091
:100E10008989823028F0C801B7010E94FE0801C00C
:100E20008FEF6896E6E00C947F09A8E1B0E0EBE173
:100E3000F7E00C94630969837A838B839C832D8309
:100E40003E834F8358878E01075F1F4FCE01019667
:100E5000B8010E94950881E1E82EF12CEC0EFD1EF0
:100E6000CE010596B7010E9495088985823040F031
:100E70008989823028F0C801B7010E94FE0801C0AC
:100E80008FEF6896E6E00C947F09A8E1B0E0EBE410
:100E9000F7E00C94630969837A838B839C832D83A9
:100EA0003E834F8358878E01075F1F4FCE01019607
:100EB000B8010E94950881E1E82EF12CEC0EFD1E90
:100EC000CE010596B7010E9495088985823040F0D1
:100ED0008989823028F0C801B7010E94FE0801C04C
:100EE00081E06896E6E00C947F09ACE0B0E0EBE7C7
:100EF000F7E00C94670969837A838B839C83CE0126
:100F00000196BE016B5F7F4F0E9495088D818230F4
:100F100081F1823070F1843021F48E81882369F16F
:100F20000AC02F81388537FD24C06E812F313105ED
:100F30003CF0662311F120E030E040E050E821C0B1
:100F40008EE190E0821B930B29853A854B855C8569
:100F500004C056954795379527958A95D2F766230D
:100F600081F050954095309521953F4F4F4F5F4F01
:100F700008C020E030E0A90104C02FEF3FEF4FEFA1
:100F80005FE7B901CA012C96E2E00C948309EF9265
:100F9000FF920F931F93CF93DF93FC012481358140
:100FA0004681578161818081823020F44061EFEF7A
:100FB000F0E0A3C0843009F49BC0823009F492C0F1
:100FC000211531054105510509F48FC00280F381D7
:100FD000E02D8FEFE238F8070CF05AC0C2E8DFEFDF
:100FE000CE1BDF0BCA31D1056CF579018A010C2EBD
:100FF00004C016950795F794E7940A94D2F781E018
:1010000090E0A0E0B0E00C2E04C0880F991FAA1F4A
:10101000BB1F0A94D2F70197A109B1098223932338
:10102000A423B52321E030E040E050E00097A10583
:10103000B10519F420E030E0A9012E293F29402B09
:10104000512B03C020E030E0A901DA01C9018F77FC
:101050009070A070B07080349105A105B10539F48D
:1010600027FF09C0205C3F4F4F4F5F4F04C0215CFA
:101070003F4F4F4F5F4FE1E0F0E0203080E0380716
:1010800080E0480780E4580728F5E0E0F0E022C05F
:10109000E038F1056CF5E158FF4FDA01C9018F77AF
:1010A0009070A070B07080349105A105B10539F43D
:1010B00027FF09C0205C3F4F4F4F5F4F04C0215CAA
:1010C0003F4F4F4F5F4F57FF05C056954795379598
:1010D0002795319687E056954795379527958A95B8
:1010E000D1F70BC0E0E0F0E005C0E0E0F0E005C0C3
:1010F000EFEFF0E020E030E0A9018E2F8795882700
:101100008795942F9F77679566276795E695E22EDA
:10111000A92FA82BFE2FF62B622F732F8A2F9F2F1C
:10112000CDB7DEB7E6E00C947F09DC01FB012C9122
:1011300011963C91119712968C911297482F4F77E8
:1011400050E0982F991F9927991F13966C91139728
:10115000862F880F892B90E0661F6627661F6183A4
:10116000009739F5211531054105510511F482E04B
:1011700029C082E89FEF9383828367E0220F331FA9
:10118000441F551F6A95D1F783E0808309C0220F61
:10119000331F441F551F828193810197938382835C
:1011A000203080E0380780E0480780E4580778F373
:1011B00020C08F3F910579F4211531054105510576
:1011C00019F484E08083089544FF03C081E08083A4
:1011D00010C010820EC08F5790409383828383E0AB
:1011E000808387E0220F331F441F551F8A95D1F754
:1011F000506424833583468357830895FC01DB01C3
:101200009081923008F449C08C91823008F445C036
:10121000943051F461818430B1F511962C9111977D
:1012200030E0261B310941C0843021F0923041F476
:101230008230B1F111968C9111978823A1F12DC0C4
:101240006181823001F111968C9111976817D9F460
:101250002281338112968D919C9113978217930767
:1012600094F028173907BCF02481358146815781D5
:1012700014968D919D910D90BC91A02D821793078E
:10128000A407B50718F4662341F00DC028173907E5
:101290004A075B0728F4662331F021E030E005C0FF
:1012A00020E030E002C02FEF3FEFC90108952F92F8
:1012B0003F924F925F926F927F928F929F92AF92E6
:1012C000BF92CF92DF92EF92FF920F931F93CF9333
:1012D000DF93CDB7DEB7CA1BDB0B0FB6F894DEBFCA
:1012E0000FBECDBF09942A88398848885F846E84F0
:1012F0007D848C849B84AA84B984C884DF80EE803A
:10130000FD800C811B81AA81B981CE0FD11D0FB642
:10131000F894DEBF0FBECDBFED010895F894FFCF66
:101320003734316F383532303936333D2F782D2B05
:0E13300068656C6C6F0000000000000000009B
:00000001FF
